S0160000536D617274466C6F776572706F742E7372656345
S11300000C942A000C9447000C9447000C9447006D
S11300100C9447000C9447000C9447000C94470040
S11300200C9447000C9447000C9449000C9447002E
S11300300C9447000C9447000C9447000C94470020
S11300400C9447000C9447000C9447000C94470010
S11300500C94470011241FBECFE5D8E0DEBFCDBF0E
S113006010E0A0E6B0E0E4E9F3E002C005900D92F0
S1130070A837B107D9F720E0A8E7B0E001C01D9286
S1130080AE37B207E1F70E948F010C94C8010C94BB
S113009000001F920F920FB60F9211242F938F938B
S11300A09F9380917800909179000196883E23E097
S11300B0920728F4909379008093780004C01092FA
S11300C07900109278009F918F912F910F900FBE1D
S11300D00F901F90189525B3382F307F2F70232B46
S11300E025BB25B361702E7F262B25BBA99AEFE192
S11300F0FEE43197F1F700C0000025B32C7F25BB47
S113010025B382959295907F9827807F9827922F88
S11301109F70892B85BB85B38E7F682B65BBA99A9D
S11301208FE19EE40197F1F700C0000085B38C7F56
S113013085BB08958FEF84BB60E070E083E090E0BE
S11301400E946B008FE19EE40197F1F700C000006C
S113015060E070E083E090E00E946B008FE19EE439
S11301600197F1F700C0000060E070E083E090E0E8
S11301700E946B008FE19EE40197F1F700C000003C
S113018060E070E082E090E00E946B008FE19EE40A
S11301900197F1F700C0000060E070E08CE090E0AF
S11301A00E946B008FE19EE40197F1F700C000000C
S11301B060E070E081E090E00E946B008FE19EE4DB
S11301C00197F1F700C0000060E070E080E890E083
S11301D00E946B008FE19EE40197F1F700C00000DC
S11301E060E070E081E090E00E946B000895EF927F
S11301F0FF920F931F93CF93DF938C017C01C0E098
S1130200D0E009C0F70181917F0161E070E090E0E6
S11302100E946B002196F80101900020E9F73197C4
S1130220E01BF10BCE17DF0768F3DF91CF911F912D
S11302300F91FF90EF90089560E070E080E890E007
S11302400E946B0080E690E00E94F70060E070E09E
S113025080EC90E00E946B008BE690E00E94F70037
S11302600895CF93DF939C0164E670E00E94A0019F
S1130270CB01CAE0D0E0BE010E94A001FC01C9018B
S1130280BE010E94A001382FCB01BE010E94A00133
S1130290282F309769F4892B29F490E3930F30E0E9
S11302A020E00AC090E3920F20E3230F30E004C063
S11302B090E39E0F205D305DEAE7F0E090832183B8
S11302C032831382CF01DF91CF9108950F931F934F
S11302D0CF93DF938C01EB0160E070E08AE890E05B
S11302E00E946B00C8010E9431010E94F70086E75A
S11302F090E00E94F70060E070E08AEC90E00E94D9
S11303006B00CE010E9431010E94F70086E790E065
S11303100E94F700DF91CF911F910F9108950E94E1
S11303209A0060E070E080EC90E00E946B000E9414
S11303301C0167E570E088E090E00E946601FFCF51
S113034097FB072E16F4009407D077FD09D00E947E
S1130350B40107FC05D03EF4909581959F4F089514
S1130360709561957F4F0895AA1BBB1B51E107C08F
S1130370AA1FBB1FA617B70710F0A61BB70B881F31
S1130380991F5A95A9F780959095BC01CD010895C0
S1070390F894FFCF0B
S113039453656E736F7220313A200053656E736F28
S10B03A47220323A200025000A
S9030000FC
