:100000000C942A000C9447000C9447000C94470071
:100010000C9447000C9447000C9447000C94B500D6
:100020000C9447000C9447000C948E000C944700ED
:100030000C9447000C9447000C9447000C94470024
:100040000C9447000C9447000C9447000C94470014
:100050000C94470011241FBECFE5D8E0DEBFCDBF12
:1000600010E0A0E6B0E0ECE8F7E002C005900D92E9
:10007000A23FB107D9F721E0A2EFB0E001C01D9285
:10008000A931B207E1F70E9402030C94C4030C9457
:1000900000001ABA80E487B987E886B9089597B155
:1000A0008770987F892B87B9369A3699FECF84B1AD
:1000B00095B108958130910519F00297A1F0089546
:1000C00080E00E944F009C01A4E6B0E00E94A103E2
:1000D0002FEF33E040E050E00E947F0330930501B2
:1000E00020930401089581E00E944F009C01A4E642
:1000F000B0E00E94A1032FEF33E040E050E00E9407
:100100007F03309307012093060108958DE083BF9C
:1001100012BE8CE98CBF82E089BF08951F920F92B6
:100120000FB60F9211248F939F9388B7826088BF78
:100130008091F2009091F30001969093F3008093E8
:10014000F2009F918F910F900FBE0F901F90189506
:100150008EB58B608EBD1DBC1CBC8FE493EC9BBD2B
:100160008ABD89B7806189BF08951F920F920FB62B
:100170000F9211242F933F934F935F936F937F932D
:100180008F939F93AF93BF93EF93FF930E94B80217
:1001900098B381E0892788BB8091F4009091F500A5
:1001A00001968330910528F49093F5008093F40034
:1001B0000CC01092F5001092F40081E090E00E94D3
:1001C0005A0082E090E00E945A00FF91EF91BF91A7
:1001D000AF919F918F917F916F915F914F913F91DF
:1001E0002F910F900FBE0F901F90189525B3382FA9
:1001F000307F2F70232B25BB25B361702E7F262BDC
:1002000025BBA99AEFE1FEE43197F1F700C00000A9
:1002100025B32C7F25BB25B382959295907F982797
:10022000807F9827922F9F70892B85BB85B38E7F07
:10023000682B65BBA99A8FE19EE40197F1F700C096
:10024000000085B38C7F85BB08958FEF84BB60E091
:1002500070E083E090E00E94F6008FE19EE4019759
:10026000F1F700C0000060E070E083E090E00E94E1
:10027000F6008FE19EE40197F1F700C0000060E016
:1002800070E083E090E00E94F6008FE19EE4019729
:10029000F1F700C0000060E070E082E090E00E94B2
:1002A000F6008FE19EE40197F1F700C0000060E0E6
:1002B00070E08CE090E00E94F6008FE19EE40197F0
:1002C000F1F700C0000060E070E081E090E00E9483
:1002D000F6008FE19EE40197F1F700C0000060E0B6
:1002E00070E080E890E00E94F6008FE19EE40197C4
:1002F000F1F700C0000060E070E081E090E00E9453
:10030000F6000895EF92FF920F931F93CF93DF9320
:100310008C017C01C0E0D0E009C0F70181917F0130
:1003200061E070E090E00E94F6002196F8010190F3
:100330000020E9F73197E01BF10BCE17DF0768F3D8
:10034000DF91CF911F910F91FF90EF900895CF9380
:10035000DF9360E070E081E090E00E94F60060E0F2
:1003600070E080E890E00E94F60080E690E00E9455
:100370008201C5E0D0E061E070E080E290E00E94A0
:10038000F6002197C1F709C061E070E080E290E0DB
:100390000E94F6002197C1F70DC060E070E080EC8C
:1003A00090E00E94F6008BE690E00E948201C5E09A
:1003B000D0E0EACFDF91CF91089560E070E081E076
:1003C00090E00E94F60060E070E080E890E00E941B
:1003D000F60086E790E00E948201089560E070E0F8
:1003E00080EC90E00E94F60089E091E00E9482019A
:1003F000089560E070E081E090E00E94F60060E027
:1004000070E080E890E00E94F60087E890E00E94AB
:100410008201089560E070E080EC90E00E94F600B8
:1004200083E990E00E9482010895CF93DF939C01BD
:1004300064E670E00E946B03CB01CAE0D0E0BE012D
:100440000E946B03FC01C901BE010E946B03382F9F
:10045000CB01BE010E946B03282F309769F4892BD2
:1004600029F490E3930F30E020E00AC090E3920F6C
:1004700020E3230F30E004C090E39E0F205D305D49
:10048000E6EFF0E09083218332831382CF01DF9186
:10049000CF91089560E070E08AE890E00E94F60055
:1004A00080910401909105010E9415020E94820131
:1004B0008BE990E00E9482018DE990E00E94820128
:1004C00060E070E08AEC90E00E94F6008091060106
:1004D000909107010E9415020E9482018BE990E031
:1004E0000E9482018DE990E00E948201089560E0FF
:1004F00070E081E090E00E94F60060E070E080E84B
:1005000090E00E94F60080EA90E00E94820160E0A4
:1005100070E080EC90E00E94F60085EA90E00E9496
:100520008201089560E070E081E090E00E94F600B2
:1005300060E070E080E890E00E94F6008AEA90E0D7
:100540000E948201089560E070E084E890E00E94DB
:10055000F6008AEB90E00E94820160E070E084EC9B
:1005600090E00E94F60087EC90E00E9482010895DE
:1005700080910801813049F058F0823019F08330C1
:1005800051F00CC00E94A30208950E944A020895EF
:100590000E94EE0108950E940A02089560E070E052
:1005A00080E890E00E94F60081ED90E00E948201D8
:1005B0000895B89A0895EAEFF0E0108281E081830F
:1005C00082E0828383E083838FEF848385838683C5
:1005D0008783808781878AE0E7EDF0E0A9E0B1E0DA
:1005E00001900D928A95E1F7109205011092040195
:1005F000109207011092060108950E94D9020E94EC
:10060000DB0208950E94FD020E9486000E94A8005D
:100610000E9449000E9425010E9492022FEF83ED63
:1006200090E3215080409040E1F700C0000083E05B
:100630000E943C037894FFCF813049F028F082304B
:1006400049F0833051F00CC00E94DD0108950E94F2
:10065000A70108950E94770208950E94F901089564
:1006600081E1E1EEF0E0A9E0B1E001900D928A9520
:10067000E1F70E94DD01089590910801891751F179
:100680009091FA00981739F0EBEFF0E024E031E0B8
:100690009191981305C0809308010E941C0304C027
:1006A000E217F307A9F707C08FE59AEE0197F1F774
:1006B00000C0000008958AE0E7EDF0E0A9E0B1E0B5
:1006C00001900D928A95E1F71092080180E00E9456
:1006D0001C03EACF089597FB072E16F4009407D069
:1006E00077FD09D00E94B00307FC05D03EF4909539
:1006F00081959F4F0895709561957F4F0895A1E270
:100700001A2EAA1BBB1BFD010DC0AA1FBB1FEE1F8B
:10071000FF1FA217B307E407F50720F0A21BB30BD6
:10072000E40BF50B661F771F881F991F1A9469F752
:1007300060957095809590959B01AC01BD01CF01AE
:100740000895A29FB001B39FC001A39F700D811DAA
:100750001124911DB29F700D811D1124911D0895CA
:10076000AA1BBB1B51E107C0AA1FBB1FA617B707D7
:1007700010F0A61BB70B881F991F5A95A9F78095F3
:0C0780009095BC01CD010895F894FFCFC6
:10078C0053656E736F7220313A200053656E736F30
:10079C007220323A20004552524F5253204F43435D
:1007AC0055525245443A005741544552204C4556F7
:1007BC00454C002D2D2D2D2D2D2D002500202000FC
:1007CC00446174650054696D6500496E69746961B2
:1007DC006C697A696E672E2E2E00203031204150C4
:1007EC00522032303137002032333A34323A3531FC
:1007FC00006572726F72004E6F206572726F727349
:10080C000057726F6E67206D656E75207469746C1D
:02081C00650075
:00000001FF
