S0160000536D617274466C6F776572706F742E7372656345
S11300000C942A000C9447000C9447000C9447006D
S11300100C9447000C9447000C9447000C94470040
S11300200C9447000C9447000C9491000C944700E6
S11300300C9447000C9447000C9447000C94470020
S11300400C9447000C9447000C9447000C94470010
S11300500C94470011241FBECFE5D8E0DEBFCDBF0E
S113006010E0A0E6B0E0EEE4F5E002C005900D92E9
S1130070A43AB107D9F720E0A4EAB0E001C01D9288
S1130080AF3AB207E1F70E9437020C94A5020C9430
S113009000001ABA80E487B987E886B9089597B151
S11300A08770987F892B87B9369A3699FECF84B1A9
S11300B095B108958130910519F00297A1F0089542
S11300C080E00E944F009C01A4E6B0E00E948202FE
S11300D02FEF33E040E050E00E9460023093AB0029
S11300E02093AA00089581E00E944F009C01A4E699
S11300F0B0E00E9482022FEF33E040E050E00E9423
S113010060023093AD002093AC0008958BE083BF70
S113011012BE8AEF8CBF89B7826089BF82E088BF34
S113012008951F920F920FB60F9211242F933F93AD
S11301304F935F936F937F938F939F93AF93BF93EB
S1130140EF93FF93809160009091610001968C3D44
S113015025E0920728F490936100809360001BC00F
S113016010926100109260008091AE00882319F013
S1130170813051F00CC06091AC007091AD0080E012
S113018090E00E94D60107C00E94220204C082E6C9
S113019090E00E947C018091A4009091A5000196BA
S11301A09093A5008093A400883E934040F081E0A2
S11301B090E00E945A0082E090E00E945A00FF9171
S11301C0EF91BF91AF919F918F917F916F915F91CB
S11301D04F913F912F910F900FBE0F901F90189544
S11301E025B3382F307F2F70232B25BB25B36170A7
S11301F02E7F262B25BBA99AEFE1FEE43197F1F778
S113020000C0000025B32C7F25BB25B382959295B1
S1130210907F9827807F9827922F9F70892B85BB8A
S113022085B38E7F682B65BBA99A8FE19EE4019705
S1130230F1F700C0000085B38C7F85BB08958FEF74
S113024084BB60E070E083E090E00E94F0008FE106
S11302509EE40197F1F700C0000060E070E083E0E5
S113026090E00E94F0008FE19EE40197F1F700C056
S1130270000060E070E083E090E00E94F0008FE115
S11302809EE40197F1F700C0000060E070E082E0B6
S113029090E00E94F0008FE19EE40197F1F700C026
S11302A0000060E070E08CE090E00E94F0008FE1DC
S11302B09EE40197F1F700C0000060E070E081E087
S11302C090E00E94F0008FE19EE40197F1F700C0F6
S11302D0000060E070E080E890E00E94F0008FE1B0
S11302E09EE40197F1F700C0000060E070E081E057
S11302F090E00E94F0000895EF92FF920F931F93F5
S1130300CF93DF938C017C01C0E0D0E009C0F701FA
S113031081917F0161E070E090E00E94F0002196FD
S1130320F80101900020E9F73197E01BF10BCE179B
S1130330DF0768F3DF91CF911F910F91FF90EF904A
S11303400895CF93DF939C0164E670E00E944C0211
S1130350CB01CAE0D0E0BE010E944C02FC01C901FD
S1130360BE010E944C02382FCB01BE010E944C02F8
S1130370282F309769F4892B29F490E3930F30E008
S113038020E00AC090E3920F20E3230F30E004C082
S113039090E39E0F205D305DE6EAF0E090832183D8
S11303A032831382CF01DF91CF9108950F931F936E
S11303B0CF93DF938C01EB0160E070E08AE890E07A
S11303C00E94F000C8010E94A1010E947C018EE7F6
S11303D090E00E947C0180E890E00E947C0160E053
S11303E070E08AEC90E00E94F000CE010E94A1012E
S11303F00E947C018EE790E00E947C0180E890E0FE
S11304000E947C01DF91CF911F910F91089560E0CC
S113041070E081E090E00E94F00060E070E080E82D
S113042090E00E94F00083E890E00E947C0160E08C
S113043070E080EC90E00E94F00088E890E00E9478
S11304407C01089560E070E084E890E00E94F00090
S11304508DE890E00E947C0160E070E084EC90E024
S11304600E94F0008AE990E00E947C01089581E0F6
S11304708093AE001092AB001092AA001092AD00CF
S11304801092AC0078940E9486000E9449000E9459
S11304901F010E940702FFCF97FB072E16F400945A
S11304A007D077FD09D00E94910207FC05D03EF4E5
S11304B0909581959F4F0895709561957F4F08950C
S11304C0A1E21A2EAA1BBB1BFD010DC0AA1FBB1F54
S11304D0EE1FFF1FA217B307E407F50720F0A21BC6
S11304E0B30BE40BF50B661F771F881F991F1A9433
S11304F069F760957095809590959B01AC01BD015D
S1130500CF010895A29FB001B39FC001A39F700DB6
S1130510811D1124911DB29F700D811D1124911D07
S11305200895AA1BBB1B51E107C0AA1FBB1FA61736
S1130530B70710F0A61BB70B881F991F5A95A9F788
S111054080959095BC01CD010895F894FFCFED
S113054EF4016572726F720053656E736F722031AF
S113055E3A200053656E736F7220323A20002500E4
S113056E202000446174650054696D6500203031AB
S113057E204150522032303137002032333A343257
S107058E3A353100C5
S9030000FC
