:100000000C945E000C947B000C947B000C947B00A1
:100010000C947B000C947B000C947B000C94850169
:100020000C947B000C947B000C947B000C947B0064
:100030000C947B000C949E070C947B000C947B002A
:100040000C947B000C947B000C947B000C947B0044
:100050000C947B009C02D3020A0341037803AF0394
:10006000E60308000000BE922449123EABAAAA2A69
:10007000BECDCCCC4C3E00000080BEABAAAAAA3EAE
:1000800000000000BF000000803F000000000008EA
:100090004178D3BB4387D1133D190E3CC3BD428287
:1000A000AD2B3E68EC8276BED98FE1A93E4C80EF45
:1000B000FFBE01C4FF7F3F000000000011241FBEEF
:1000C000CFE5D8E0DEBFCDBF11E0A0E6B0E0E4E1CF
:1000D000F8E102C005900D92AA31B107D9F721E0ED
:1000E000AAE1B1E001C01D92A235B207E1F70E947A
:1000F0000C080C94080C0C9400001ABA80E487B920
:1001000087E886B9089597B18770987F892B87B95A
:10011000369A3699FECF84B195B10895CF92DF9289
:10012000EF92FF9282E00E9483009C01A8E8B3E175
:100130000E94DA0B2FEF33E040E050E00E94930B77
:1001400069017A0144275527A0E1B7E20E94E90B33
:1001500028E833E12C193D0940E050E00E94930B60
:10016000B90180E090E00E94920920E030E44CE187
:1001700056E40E94EA080E94280A20E030E44CE19C
:1001800056E40E94700A0E945C099B01AC01A4E63F
:10019000B0E00E94E90B24E030E140E050E00E9432
:1001A000B50B265E324F4F4F5F4F60E071EE85EF2B
:1001B00095E00E94B50BDA01C9018B529B46A1095B
:1001C000B1098093320190933301A0933401B0932D
:1001D0003501FF90EF90DF90CF9008958130910529
:1001E00019F00297A1F0089580E00E9483009C011D
:1001F000A4E6B0E00E94DA0B2FEF33E040E050E0DD
:100200000E94930B30933D0120933C01089581E0BF
:100210000E9483009C01A4E6B0E00E94DA0B2FEF5D
:1002200033E040E050E00E94930B30933F01209375
:100230003E01089581B38F7381BB82B38F7382BBFC
:10024000809131018E7F8D7F80933101089590B32D
:1002500092959695969593708091310190FB80F9D7
:100260008093310180FF09C08FE19EE40197F1F78F
:1002700000C000000E949908089580B3881F882755
:10028000881F9091310180FB91F99093310108957D
:1002900080913A0190913B0101968C3391052CF4A9
:1002A00090933B0180933A010895E6E3F1E01582D3
:1002B00014828281938101968C3391052CF4909362
:1002C0003901809338010895E6E3F1E01382128248
:1002D000808191810196883191052CF490933701AA
:1002E00080933601089510923701109236010895D7
:1002F0008EB58B608EBD1DBC1CBC8FE493EC9BBD8A
:100300008ABD89B7806189BF08951F920F920FB689
:100310000F9211242F933F934F935F936F937F938B
:100320008F939F93AF93BF93EF93FF930E946007C8
:1003300080911E0190911F0101968530910528F44E
:1003400090931F0180931E012BC010921F011092E9
:100350001E010E94480198B381E0892788BB609103
:10036000300181E00E94AD0760913C0182E00E9473
:10037000AD0760913E0183E00E94AD0760913201BC
:1003800070913301809134019091350124E630E081
:1003900040E050E00E94B50B622F84E00E94AD0760
:1003A000809120019091210101968330910528F4DC
:1003B00090932101809320010CC010922101109292
:1003C000200181E090E00E94EE0082E090E00E9437
:1003D000EE0080916000909161000196833091055C
:1003E00028F490936100809360000AC0109261002D
:1003F000109260000E9427010E94C3080E948E0094
:1004000080913C0190913D01449700F580913E011F
:1004100090913F014497D0F48091310183FD16C043
:1004200080911C0190911D01019690931D01809374
:100430001C018436910570F08091310184608093B5
:10044000310110921D0110921C0104C010921D0177
:1004500010921C01809131018C70843039F4959A8E
:100460008091310188608B7F8093310180913101CF
:1004700083FF15C080911A0190911B010196909302
:100480001B0180931A01449750F095988091310197
:10049000877F8093310110921B0110921A01FF9106
:1004A000EF91BF91AF919F918F917F916F915F91EC
:1004B0004F913F912F910F900FBE0F901F90189565
:1004C00025B3382F307F2F70232B25BB25B36170C8
:1004D0002E7F262B25BBA99AEFEDFEE23197F1F78F
:1004E00000C0000025B32C7F25BB25B382959295D3
:1004F000907F9827807F9827922F9F70892B85BBAC
:1005000085B38E7F682B65BBA99A8FED9EE201971C
:10051000F1F700C0000085B38C7F85BB0895E091A2
:1005200030018E2F90E08730910508F086C1FC01E4
:10053000E65DFF4F0C94D40B60E070E080E590E046
:100540000E94600261E070E080E090E00E94600242
:1005500061E070E080E090E00E94600261E070E0A5
:1005600080E090E00E94600261E070E080E090E056
:100570000E94600261E070E080E090E00E94600212
:1005800061E070E080E090E00E94600261E070E075
:1005900080E090E00E94600261E070E08FE190E016
:1005A0000E946002089560E070E080E590E00E94A3
:1005B000600261E070E080E090E00E94600261E033
:1005C00070E080E090E00E94600261E070E080E016
:1005D00090E00E94600261E070E080E090E00E94A4
:1005E000600261E070E080E090E00E94600261E003
:1005F00070E08FE190E00E94600261E070E080E0D6
:1006000090E00E94600261E070E08FE190E00E9463
:100610006002089560E070E080E590E00E94600272
:1006200061E070E080E090E00E94600261E070E0D4
:1006300080E090E00E94600261E070E080E090E085
:100640000E94600261E070E080E090E00E94600241
:1006500061E070E08FE190E00E94600261E070E094
:100660008FE190E00E94600261E070E080E090E045
:100670000E94600261E070E08FE190E00E94600201
:10068000089560E070E080E590E00E94600261E023
:1006900070E080E090E00E94600261E070E080E045
:1006A00090E00E94600261E070E080E090E00E94D3
:1006B000600261E070E08FE190E00E94600261E022
:1006C00070E08FE190E00E94600261E070E08FE1F5
:1006D00090E00E94600261E070E080E090E00E94A3
:1006E000600261E070E08FE190E00E946002089596
:1006F00060E070E080E590E00E94600261E070E000
:1007000080E090E00E94600261E070E080E090E0B4
:100710000E94600261E070E08FE190E00E94600260
:1007200061E070E08FE190E00E94600261E070E0C3
:100730008FE190E00E94600261E070E08FE190E064
:100740000E94600261E070E080E090E00E94600240
:1007500061E070E08FE190E00E946002089560E047
:1007600070E080E590E00E94600261E070E080E06F
:1007700090E00E94600261E070E08FE190E00E94F2
:10078000600261E070E08FE190E00E94600261E051
:1007900070E08FE190E00E94600261E070E08FE124
:1007A00090E00E94600261E070E08FE190E00E94C2
:1007B000600261E070E080E090E00E94600261E031
:1007C00070E08FE190E00E946002089560E070E0C8
:1007D00080E590E00E94600261E070E08FE190E0CF
:1007E0000E94600261E070E08FE190E00E94600290
:1007F00061E070E08FE190E00E94600261E070E0F3
:100800008FE190E00E94600261E070E08FE190E093
:100810000E94600261E070E08FE190E00E9460025F
:1008200061E070E080E090E00E94600261E070E0D2
:100830008FE190E00E946002089560E070E080E542
:1008400090E00E94600261E070E080E090E00E9431
:10085000600261E070E080E090E00E94600261E090
:1008600070E080E090E00E94600261E070E080E073
:1008700090E00E94600261E070E080E090E00E9401
:10088000600261E070E080E090E00E94600261E060
:1008900070E080E090E00E94600261E070E08FE133
:1008A00090E00E946002089560E070E080E490E0D3
:1008B0000E94600261E070E081E090E00E946002CE
:1008C00061E070E081E090E00E94600261E070E031
:1008D00081E090E00E94600261E070E081E090E0E1
:1008E0000E94600261E070E083E090E00E9460029C
:1008F00061E070E087E090E00E94600261E070E0FB
:100900008DE090E00E94600261E070E089E190E09B
:100910000E94600260E070E088E490E00E94600263
:1009200061E070E080E190E00E94600261E070E0D0
:1009300080E190E00E94600261E070E080E190E080
:100940000E94600261E070E080E190E00E9460023D
:1009500061E070E088E190E00E94600261E070E098
:100960008CE190E00E94600261E070E086E190E03E
:100970000E94600261E070E083E190E00E9460020A
:1009800008958FEF84BB60E070E083E090E00E9408
:1009900060028FEF9CE70197F1F700C0000060E074
:1009A00070E083E090E00E9460028FEF9CE7019787
:1009B000F1F700C0000060E070E083E090E00E948A
:1009C00060028FEF9CE70197F1F700C0000060E044
:1009D00070E082E090E00E9460028FEF9CE7019758
:1009E000F1F700C0000060E070E08CE090E00E9451
:1009F00060028FEF9CE70197F1F700C0000060E014
:100A000070E081E090E00E9460028FEF9CE7019728
:100A1000F1F700C0000060E070E080E890E00E9424
:100A200060028FEF9CE70197F1F700C0000060E0E3
:100A300070E081E090E00E9460020E9454040895FA
:100A4000EF92FF920F931F93CF93DF938C017C0162
:100A5000C0E0D0E009C0F70181917F0161E070E062
:100A600090E00E9460022196F80101900020E9F7D1
:100A70003197E01BF10BCE17DF0768F3DF91CF91C1
:100A80001F910F91FF90EF900895CF93DF9360E057
:100A900070E081E090E00E94600260E070E080E839
:100AA00090E00E94600282E690E00E942005C5E08E
:100AB000D0E061E070E080E290E00E946002219767
:100AC000C1F709C061E070E080E290E00E9460023E
:100AD0002197C1F70DC060E070E080EC90E00E94CB
:100AE00060028DE690E00E942005C5E0D0E0EACFEC
:100AF000DF91CF91089560E070E081E090E00E9486
:100B0000600260E070E080E890E00E94600288E7A8
:100B100090E00E942005089560E070E081E090E0A0
:100B20000E94600260E070E080E890E00E94600255
:100B300089E890E00E94200560E070E084EC90E09D
:100B40000E94600261E070E08FED90E00E94600220
:100B500061E070E083E490E00E946002089560E04C
:100B600070E081E090E00E94600260E070E080E868
:100B700090E00E94600285E990E00E9420050895BF
:100B800060E070E080EC90E00E94600281E491E01F
:100B90000E942005089560E070E081E090E00E94EE
:100BA000600260E070E080E890E00E94600283EA0A
:100BB00090E00E9420050895CF93DF93809130014B
:100BC00090E00E948F0260E070E080EC90E00E9474
:100BD000600261E070E080E090E00E946002C8E0A6
:100BE000D0E061E070E082E090E00E946002219736
:100BF000C1F761E070E081E090E00E946002DF9167
:100C0000CF910895CF93DF939C0164E670E00E943A
:100C10007F0BCB01CAE0D0E0BE010E947F0BFC013C
:100C2000C901BE010E947F0B382FCB01BE010E947B
:100C30007F0B282F309769F4892B29F490E3930FC9
:100C400030E020E00AC090E3920F20E3230F30E071
:100C500004C090E39E0F205D305DE2E2F1E09083FE
:100C6000218332831382CF01DF91CF91089560E019
:100C700070E08AE890E00E94600280913C019091CF
:100C80003D010E9402060E94200584EB90E00E9434
:100C9000200586EB90E00E94200560E070E08AEC81
:100CA00090E00E94600280913E0190913F010E947D
:100CB00002060E94200584EB90E00E94200586EB4E
:100CC00090E00E9420050895CF92DF92EF92FF926C
:100CD00060E070E080EC90E00E9460026091320180
:100CE00070913301809134019091350128EE33E009
:100CF00040E050E00E94B50B0F2EFAE0CF2ED12C31
:100D0000E12CF12CF02DCA01B901A70196010E9436
:100D1000B50BCB01C09661E070E00E94600260916B
:100D2000320170913301809134019091350124E6B4
:100D300030E040E050E00E94B50BCA01B901A701C4
:100D400096010E94B50BCB01C09661E070E00E9455
:100D5000600261E070E08EE290E00E9460026091CB
:100D60003201709133018091340190913501A701D6
:100D700096010E94B50BCA01B901A70196010E9414
:100D8000B50BCB01C09661E070E00E946002FF905D
:100D9000EF90DF90CF90089560E070E081E090E008
:100DA0000E94600260E070E080E890E00E946002D3
:100DB00089EB90E00E94200560E070E080EC90E01C
:100DC0000E9460028EEB90E00E942005089560E092
:100DD00070E081E090E00E94600260E070E080E8F6
:100DE00090E00E94600283EC90E00E94200508954C
:100DF0000F931F93CF93DF9360E070E084E890E05F
:100E00000E94600283ED90E00E94200560E070E0A7
:100E100085EC90E00E946002C6E3D1E08881998170
:100E20000AE010E0B8010E947F0BCB0161E070E0A6
:100E3000C0960E94600288819981B8010E947F0B50
:100E400061E070E0C0960E94600261E070E08AE3B9
:100E500090E00E9460028A819B81B8010E947F0B12
:100E6000CB0161E070E0C0960E9460028A819B81A4
:100E7000B8010E947F0B61E070E0C0960E946002A2
:100E800061E070E08AE390E00E9460028C819D81C5
:100E9000B8010E947F0BCB0161E070E0C0960E9418
:100EA00060028C819D81B8010E947F0B61E070E03F
:100EB000C0960E946002DF91CF911F910F9108951B
:100EC00080914001823061F028F48823E9F081307C
:100ED000C1F020C0843051F0D0F0853021F01AC02C
:100EE0000E94F80608950E946406089560E070E08C
:100EF00080EC90E00E94600280EE90E00E9420056D
:100F000008950E94370608950E94C00508950E9422
:100F1000DC05089560E070E080EC90E00E946002E3
:100F200088EE90E00E942005089588E18AB986E85D
:100F300080BD10BC87E689B9579A08951F920F9219
:100F40000FB60F9211248F938CB1809351018F9122
:100F50000F900FBE0F901F9018951CB8EFEDFEE29A
:100F60003197F1F700C000001CB8EFEDFEE23197B9
:100F7000F1F700C000008CB98FED9EE20197F1F708
:100F800000C000006CB9EFEDFEE23197F1F700C050
:100F9000000008958D9A95980895B89A0895E6E20C
:100FA000F1E0108281E0818382E0828383E08383A9
:100FB00084E0848385E085838FEF868387838087C1
:100FC00081878AE0E4EFF0E0A1E4B1E001900D92C6
:100FD0008A95E1F710923D0110923C0110923F0179
:100FE00010923E01109230018BE190E0A0E0B0E061
:100FF0008093320190933301A0933401B093350173
:10100000809131018B7F877F8093310108950E9409
:10101000CD070E94CF0708950E9407082FEF83E2B3
:1010200094EF215080409040E1F700C000000E9402
:1010300095070E9478010E947D000E94C1042FEF55
:1010400089E698E1215080409040E1F700C000001F
:101050000E94BC080E941A010E94CA070E94E7066B
:101060002FEF83ED90E3215080409040E1F700C0E6
:10107000000081E00E946A087894FFCF8230C1F0BE
:1010800028F4882349F0813081F018C0843051F071
:1010900090F0853021F012C00E947B0508950E94D7
:1010A0008C0508950E94AF0508950E944505089596
:1010B0000E94CC0608950E94CB05089581E1EEEFD1
:1010C000F0E0A1E4B1E001900D928A95E1F70E9471
:1010D0007B05089590914001891751F19091260167
:1010E000981739F0E7E2F1E020E331E091919813AD
:1010F00005C0809340010E943E0804C0E217F30738
:10110000A9F707C08FE59AEE0197F1F700C000003C
:1011100008958BE0EFE0F1E0A1E4B1E001900D92E1
:101120008A95E1F71092400180E00E943E08EACFE4
:10113000089580914001833099F028F4813041F086
:10114000823051F00895843079F0853089F0089527
:1011500082E00E946A08089583E00E946A08089568
:1011600084E00E946A08089585E00E946A08089554
:1011700081E00E946A08089587B3837087BB88B3B3
:101180008C6F88BB0895B29904C086E080933001CB
:101190000895B39904C085E0809330010895B4990F
:1011A00004C084E0809330010895B59904C083E0C1
:1011B000809330010895B69904C082E08093300195
:1011C0000895B79904C081E080933001089510928A
:1011D000300108950E94FE080C94E6090E94DF0980
:1011E00058F00E94D80940F029F45F3F29F00C9490
:1011F000CF0951110C941A0A0C94D5090E94F709D1
:1012000068F39923B1F3552391F3951B550BBB2735
:10121000AA2762177307840738F09F5F5F4F220F7A
:10122000331F441FAA1FA9F335D00E2E3AF0E0E871
:1012300032D091505040E695001CCAF72BD0FE2FBB
:1012400029D0660F771F881FBB1F2617370748074F
:10125000AB07B0E809F0BB0B802DBF01FF27935807
:101260005F4F3AF09E3F510578F00C94CF090C94F3
:101270001A0A5F3FE4F3983ED4F386957795679515
:10128000B795F7959F5FC9F7880F911D969587953C
:1012900097F90895E1E0660F771F881FBB1F62175B
:1012A00073078407BA0720F0621B730B840BBA0B19
:1012B000EE1F88F7E09508950E9463096894B111C4
:1012C0000C941A0A08950E94FF0988F09F5798F01D
:1012D000B92F9927B751B0F0E1F0660F771F881F3B
:1012E000991F1AF0BA95C9F714C0B13091F00E9455
:1012F000190AB1E008950C94190A672F782F8827EE
:10130000B85F39F0B93FCCF3869577956795B3957B
:10131000D9F73EF490958095709561957F4F8F4FEA
:101320009F4F0895E89409C097FB3EF490958095EF
:10133000709561957F4F8F4F9F4F9923A9F0F92F9B
:1013400096E9BB279395F695879577956795B79519
:10135000F111F8CFFAF4BB0F11F460FF1BC06F5FFF
:101360007F4F8F4F9F4F16C0882311F096E911C011
:10137000772321F09EE8872F762F05C0662371F032
:1013800096E8862F70E060E02AF09A95660F771F46
:10139000881FDAF7880F9695879597F9089597F93A
:1013A0009F6780E870E060E008959FEF80EC08950B
:1013B00000240A9416161706180609060895002434
:1013C0000A9412161306140605060895092E0394AE
:1013D000000C11F4882352F0BB0F40F4BF2B11F422
:1013E00060FF04C06F5F7F4F8F4F9F4F089557FD81
:1013F0009058440F551F59F05F3F71F04795880F83
:1014000097FB991F61F09F3F79F087950895121619
:1014100013061406551FF2CF4695F1DF08C01616C5
:1014200017061806991FF1CF869571056105089476
:101430000895E894BB2766277727CB0197F908958D
:1014400016F00C944A0B0C94D50968940C94CF09AF
:101450000E94FF09A8F39923C1F3AEF3DF93CF9362
:101460001F930F93FF92C92FDD2788232AF021971E
:10147000660F771F881FDAF720E030E040E85FEB67
:101480009FE3883920F0803E38F021968F770E94C4
:10149000DE0AE2E6F0E004C00E94DE0AEFE8F0E0D7
:1014A0000E94580B8B01BE01EC01FB2E6F57710996
:1014B0007595771F880B990B0E94940928E132E7F4
:1014C00041E35FE30E94830AAF2D9801AE01FF90D4
:1014D0000F911F91CF91DF910E94F50A0C94E609BC
:1014E0000E94830A0C94E6090E94D80938F00E94F1
:1014F000DF0920F0952311F00C94CF090C94D50945
:1015000011240C941A0A0E94F70970F3959FC1F3F5
:10151000950F50E0551F629FF001729FBB27F00DA1
:10152000B11D639FAA27F00DB11DAA1F649F6627F6
:10153000B00DA11D661F829F2227B00DA11D621F45
:10154000739FB00DA11D621F839FA00D611D221FFF
:10155000749F3327A00D611D231F849F600D211DE3
:10156000822F762F6A2F11249F5750409AF0F1F066
:1015700088234AF0EE0FFF1FBB1F661F771F881FCF
:1015800091505040A9F79E3F510580F00C94CF092F
:101590000C941A0A5F3FE4F3983ED4F3869577954E
:1015A0006795B795F795E7959F5FC1F7FE2B880F75
:1015B000911D9695879597F908955058BB27AA27AE
:1015C0000E94F50A0C94E6090E94D80938F00E949E
:1015D000DF0920F039F49F3F19F426F40C94D50963
:1015E0000EF4E095E7FB0C94CF09E92F0E94F70970
:1015F00058F3BA17620773078407950720F079F448
:10160000A6F50C94190A0EF4E0950B2EBA2FA02D16
:101610000B01B90190010C01CA01A0011124FF279F
:10162000591B99F0593F50F4503E68F11A16F0409A
:10163000A22F232F342F4427585FF3CF4695379599
:101640002795A795F0405395C9F77EF41F16BA0B5E
:10165000620B730B840BBAF09150A1F0FF0FBB1F0C
:10166000661F771F881FC2F70EC0BA0F621F731F55
:10167000841F48F4879577956795B795F7959E3FB2
:1016800008F0B0CF9395880F08F09927EE0F979543
:10169000879508959F3F31F0915020F48795779575
:1016A0006795B795880F911D9695879597F9089539
:1016B000DF93CF931F930F93FF92EF92DF927B0103
:1016C0008C01689406C0DA2EEF010E94830AFE01A5
:1016D000E894A5912591359145915591A6F3EF0197
:1016E0000E94F50AFE019701A801DA9469F7DF90DC
:1016F000EF90FF900F911F91CF91DF91089597FB8D
:10170000072E16F4009407D077FD09D00E94F40B41
:1017100007FC05D03EF4909581959F4F08957095F4
:1017200061957F4F0895A1E21A2EAA1BBB1BFD01F4
:101730000DC0AA1FBB1FEE1FFF1FA217B307E407B0
:10174000F50720F0A21BB30BE40BF50B661F771F08
:10175000881F991F1A9469F76095709580959095E8
:101760009B01AC01BD01CF010895052E97FB1EF42E
:1017700000940E94CC0B57FD07D00E94930B07FCEE
:1017800003D04EF40C94CC0B509540953095219598
:101790003F4F4F4F5F4F089590958095709561959D
:1017A0007F4F8F4F9F4F0895EE0FFF1F0590F491CD
:1017B000E02D0994A29FB001B39FC001A39F700DBB
:1017C000811D1124911DB29F700D811D1124911D49
:1017D00008950E94DA0BA59F900DB49F900DA49FD1
:1017E000800D911D11240895AA1BBB1B51E107C058
:1017F000AA1FBB1FA617B70710F0A61BB70B881FA1
:10180000991F5A95A9F780959095BC01CD0108952F
:04181000F894FFCF7A
:10181400C90053656E736F7220313A200053656EB0
:10182400736F7220323A20004552524F5253204F68
:10183400434355525245443A0054454D5045524154
:10184400545552450042415454455259204C455632
:10185400454C0054414E4B205741544552204C4571
:1018640056454C00250020200044617465005469ED
:101874006D6500496E697469616C697A696E672E79
:101884002E2E00203031204D415920323031370086
:101894006261747465727900666174616C2065724A
:1018A400726F72004E6F206572726F72730057729E
:1018B4006F6E67206D656E75207469746C65005772
:0A18C400726F6E67206D656E75008F
:00000001FF
