S0160000536D617274466C6F776572706F742E7372656345
S11300000C9431000C944E000C944E000C944E0051
S11300100C944E000C944E000C944E000C949A00D8
S11300200C944E000C944E000C944E000C944E0014
S11300300C944E000C9438050C944E000C944E0015
S11300400C944E000C944E000C944E000C944E00F4
S11300500C944E0039017001A701DE0115024C0217
S1130060830211241FBECFE5D8E0DEBFCDBF10E070
S1130070A0E6B0E0E2E1FDE002C005900D92A23FEF
S1130080B107D9F721E0A2EFB0E001C01D92A93178
S1130090B207E1F70E948F050C9487060C940000C8
S11300A01ABA80E487B987E886B9089597B187704A
S11300B0987F892B87B9369A3699FECF84B195B14A
S11300C008958130910519F00297A1F0089580E018
S11300D00E9456009C01A4E6B0E00E9464062FEF43
S11300E033E040E050E00E943C063093040120934A
S11300F00301089581E00E9456009C01A4E6B0E04B
S11301000E9464062FEF33E040E050E00E943C067A
S1130110309306012093050108958EB58B608EBD42
S11301201DBC1CBC8FE493EC9BBD8ABD89B7806168
S113013089BF08951F920F920FB60F9211242F9327
S11301403F934F935F936F937F938F939F93AF935B
S1130150BF93EF93FF930E940E0598B381E0892724
S113016088BB8091F2009091F30001968330910551
S113017028F49093F3008093F2000CC01092F300E3
S11301801092F20081E090E00E94610082E090E031
S11301900E9461008091600090916100019683301B
S11301A0910528F4909361008093600015C010922B
S11301B06100109260000E9401066091020181E0DA
S11301C00E9447056091030182E00E944705609107
S11301D0050183E00E944705FF91EF91BF91AF9124
S11301E09F918F917F916F915F914F913F912F914B
S11301F00F900FBE0F901F90189525B3382F307FA6
S11302002F70232B25BB25B361702E7F262B25BB96
S1130210A99AEFE1FEE43197F1F700C0000025B39D
S11302202C7F25BB25B382959295907F9827807F5C
S11302309827922F9F70892B85BB85B38E7F682B5F
S113024065BBA99A8FE19EE40197F1F700C0000015
S113025085B38C7F85BB0895E09102018E2F90E0D9
S11302608730910508F086C1FC01E65DFF4F0C94D0
S11302705E0660E070E080E590E00E94FD0061E0D1
S113028070E080E090E00E94FD0061E070E080E0BA
S113029090E00E94FD0061E070E080E090E00E9448
S11302A0FD0061E070E080E090E00E94FD0061E00C
S11302B070E080E090E00E94FD0061E070E080E08A
S11302C090E00E94FD0061E070E080E090E00E9418
S11302D0FD0061E070E08FE190E00E94FD00089570
S11302E060E070E080E590E00E94FD0061E070E075
S11302F080E090E00E94FD0061E070E080E090E02A
S11303000E94FD0061E070E080E090E00E94FD004A
S113031061E070E080E090E00E94FD0061E070E048
S113032080E090E00E94FD0061E070E08FE190E0E9
S11303300E94FD0061E070E080E090E00E94FD001A
S113034061E070E08FE190E00E94FD00089560E0BC
S113035070E080E590E00E94FD0061E070E080E0E4
S113036090E00E94FD0061E070E080E090E00E9477
S1130370FD0061E070E080E090E00E94FD0061E03B
S113038070E080E090E00E94FD0061E070E08FE1A9
S113039090E00E94FD0061E070E08FE190E00E9437
S11303A0FD0061E070E080E090E00E94FD0061E00B
S11303B070E08FE190E00E94FD00089560E070E03D
S11303C080E590E00E94FD0061E070E080E090E054
S11303D00E94FD0061E070E080E090E00E94FD007A
S11303E061E070E080E090E00E94FD0061E070E078
S11303F08FE190E00E94FD0061E070E08FE190E009
S11304000E94FD0061E070E08FE190E00E94FD0039
S113041061E070E080E090E00E94FD0061E070E047
S11304208FE190E00E94FD00089560E070E080E5B7
S113043090E00E94FD0061E070E080E090E00E94A6
S1130440FD0061E070E080E090E00E94FD0061E06A
S113045070E08FE190E00E94FD0061E070E08FE1C8
S113046090E00E94FD0061E070E08FE190E00E9466
S1130470FD0061E070E08FE190E00E94FD0061E02A
S113048070E080E090E00E94FD0061E070E08FE1A8
S113049090E00E94FD00089560E070E080E590E047
S11304A00E94FD0061E070E080E090E00E94FD00A9
S11304B061E070E08FE190E00E94FD0061E070E097
S11304C08FE190E00E94FD0061E070E08FE190E038
S11304D00E94FD0061E070E08FE190E00E94FD0069
S11304E061E070E08FE190E00E94FD0061E070E067
S11304F080E090E00E94FD0061E070E08FE190E018
S11305000E94FD00089560E070E080E590E00E94A4
S1130510FD0061E070E08FE190E00E94FD0061E089
S113052070E08FE190E00E94FD0061E070E08FE1F7
S113053090E00E94FD0061E070E08FE190E00E9495
S1130540FD0061E070E08FE190E00E94FD0061E059
S113055070E08FE190E00E94FD0061E070E080E0D7
S113056090E00E94FD0061E070E08FE190E00E9465
S1130570FD00089560E070E080E590E00E94FD00D9
S113058061E070E080E090E00E94FD0061E070E0D6
S113059080E090E00E94FD0061E070E080E090E087
S11305A00E94FD0061E070E080E090E00E94FD00A8
S11305B061E070E080E090E00E94FD0061E070E0A6
S11305C080E090E00E94FD0061E070E080E090E057
S11305D00E94FD0061E070E08FE190E00E94FD0068
S11305E0089560E070E080E490E00E94FD0061E026
S11305F070E081E090E00E94FD0061E070E081E045
S113060090E00E94FD0061E070E081E090E00E94D3
S1130610FD0061E070E081E090E00E94FD0061E097
S113062070E083E090E00E94FD0061E070E087E00C
S113063090E00E94FD0061E070E08DE090E00E9497
S1130640FD0061E070E089E190E00E94FD0060E05F
S113065070E088E490E00E94FD0061E070E080E1D9
S113066090E00E94FD0061E070E080E190E00E9473
S1130670FD0061E070E080E190E00E94FD0061E037
S113068070E080E190E00E94FD0061E070E088E1AC
S113069090E00E94FD0061E070E08CE190E00E9437
S11306A0FD0061E070E086E190E00E94FD0061E001
S11306B070E083E190E00E94FD0008958FEF84BB19
S11306C060E070E083E090E00E94FD008FE19EE432
S11306D00197F1F700C0000060E070E083E090E073
S11306E00E94FD008FE19EE40197F1F700C0000035
S11306F060E070E083E090E00E94FD008FE19EE402
S11307000197F1F700C0000060E070E082E090E043
S11307100E94FD008FE19EE40197F1F700C0000004
S113072060E070E08CE090E00E94FD008FE19EE4C8
S11307300197F1F700C0000060E070E081E090E014
S11307400E94FD008FE19EE40197F1F700C00000D4
S113075060E070E080E890E00E94FD008FE19EE49C
S11307600197F1F700C0000060E070E081E090E0E4
S11307700E94FD000E94F1020895EF92FF920F93F0
S11307801F93CF93DF938C017C01C0E0D0E009C0BC
S1130790F70181917F0161E070E090E00E94FD002B
S11307A02196F80101900020E9F73197E01BF10B45
S11307B0CE17DF0768F3DF91CF911F910F91FF9060
S11307C0EF900895CF93DF9360E070E081E090E0D4
S11307D00E94FD0060E070E080E890E00E94FD006F
S11307E082E690E00E94BD03C5E0D0E061E070E0E5
S11307F080E290E00E94FD002197C1F709C061E00A
S113080070E080E290E00E94FD002197C1F70DC0E6
S113081060E070E080EC90E00E94FD008DE690E0E6
S11308200E94BD03C5E0D0E0EACFDF91CF910895E7
S113083060E070E081E090E00E94FD0060E070E024
S113084080E890E00E94FD0088E790E00E94BD03EC
S1130850089560E070E080EC90E00E94FD0088E084
S113086091E00E94BD03089560E070E081E090E0B3
S11308700E94FD0060E070E080E890E00E94FD00CE
S113088089E890E00E94BD030895CF93DF9380919F
S1130890020190E00E942C0160E070E080EC90E0A6
S11308A00E94FD0061E070E080E090E00E94FD00A5
S11308B0C8E0D0E061E070E082E090E00E94FD00DA
S11308C02197C1F761E070E081E090E00E94FD00B3
S11308D0DF91CF910895CF93DF939C0164E670E09C
S11308E00E942806CB01CAE0D0E0BE010E9428067F
S11308F0FC01C901BE010E942806382FCB01BE01AC
S11309000E942806282F309769F4892B29F490E354
S1130910930F30E020E00AC090E3920F20E3230F0E
S113092030E004C090E39E0F205D305DE4EFF0E022
S11309309083218332831382CF01DF91CF91089575
S113094060E070E08AE890E00E94FD00809103017D
S1130950909104010E946B040E94BD038AE990E017
S11309600E94BD038CE990E00E94BD0360E070E04A
S11309708AEC90E00E94FD008091050190910601AF
S11309800E946B040E94BD038AE990E00E94BD03AB
S11309908CE990E00E94BD03089560E070E081E07E
S11309A090E00E94FD0060E070E080E890E00E942A
S11309B0FD008FE990E00E94BD0360E070E080ECF0
S11309C090E00E94FD0084EA90E00E94BD03089537
S11309D060E070E081E090E00E94FD0060E070E083
S11309E080E890E00E94FD0089EA90E00E94BD0347
S11309F0089560E070E084E890E00E94FD0089EBD7
S1130A0090E00E94BD0360E070E084EC90E00E94FE
S1130A10FD0086EC90E00E94BD03089580910701DB
S1130A20813049F058F0823019F0833051F00CC015
S1130A300E94F90408950E94A00408950E942904C4
S1130A4008950E944504089560E070E080E890E015
S1130A500E94FD0080ED90E00E94BD03089588E1AE
S1130A608AB986E880BD10BC87E689B9579A08958B
S1130A701F920F920FB60F9211248F938CB1809313
S1130A8018018F910F900FBE0F901F9018951CB8EE
S1130A90EFEDFEE23197F1F700C000001CB8EFED76
S1130AA0FEE23197F1F700C000008CB98FED9EE2B1
S1130AB00197F1F700C000006CB9EFEDFEE2319749
S1130AC0F1F700C000000895B89A0895E8EFF0E047
S1130AD0108281E0818382E0828383E083838FEFCD
S1130AE08483858386838783808781878AE0E6ED94
S1130AF0F0E0A8E0B1E001900D928A95E1F7109240
S1130B000401109203011092060110920501109243
S1130B10020108950E9464050E94660508950E94DA
S1130B208A050E942F050E948D000E9450000E9499
S1130B305E030E94FA050E94E8042FEF83ED90E320
S1130B40215080409040E1F700C0000083E00E9403
S1130B50CB057894FFCF813049F028F0823049F0FA
S1130B60833051F00CC00E94180408950E94E203DF
S1130B7008950E94CD0408950E943404089581E1EB
S1130B80E0EEF0E0A8E0B1E001900D928A95E1F783
S1130B900E941804089590910701891751F19091CA
S1130BA0F800981739F0E9EFF0E022E031E0919194
S1130BB0981305C0809307010E94AB0504C0E21797
S1130BC0F307A9F707C08FE59AEE0197F1F700C084
S1130BD0000008958AE0E6EDF0E0A8E0B1E00190BD
S1130BE00D928A95E1F71092070180E00E94AB050F
S1130BF0EACF089587B3837087BB88B38C6F88BBB3
S1130C000895B29904C086E0809302010895B399CF
S1130C1004C085E0809302010895B49904C084E07F
S1130C20809302010895B59904C083E08093020182
S1130C300895B69904C082E0809302010895B7999B
S1130C4004C081E080930201089510920201089586
S1130C5097FB072E16F4009407D077FD09D00E9465
S1130C60730607FC05D03EF4909581959F4F089537
S1130C70709561957F4F0895A1E21A2EAA1BBB1BA4
S1130C80FD010DC0AA1FBB1FEE1FFF1FA217B30754
S1130C90E407F50720F0A21BB30BE40BF50B661F6A
S1130CA0771F881F991F1A9469F76095709580952E
S1130CB090959B01AC01BD01CF010895EE0FFF1F7C
S1130CC00590F491E02D0994A29FB001B39FC00157
S1130CD0A39F700D811D1124911DB29F700D811D64
S1130CE01124911D0895AA1BBB1B51E107C0AA1F23
S1130CF0BB1FA617B70710F0A61BB70B881F991FB9
S1130D005A95A9F780959095BC01CD010895F89462
S1050D10FFCF0F
S1130D12C90053656E736F7220313A200053656EB9
S1130D22736F7220323A20004552524F5253204F71
S1130D32434355525245443A0054414E4B20574185
S1130D42544552204C4556454C0025002020004471
S1130D526174650054696D6500496E697469616CFA
S1130D62697A696E672E2E2E00203031204150524E
S1130D722032303137002032333A34323A353100BE
S1130D826572726F72004E6F206572726F727300B9
S1130D9257726F6E67206D656E75207469746C6529
S1050DA200004B
S9030000FC
