S0160000536D617274466C6F776572706F742E7372656345
S11300000C9431000C944E000C944E000C944E0051
S11300100C944E000C944E000C944E000C94BC00B6
S11300200C944E000C944E000C9495000C944E00CD
S11300300C944E000C944E000C944E000C944E0004
S11300400C944E000C944E000C944E000C944E00F4
S11300500C944E0046017D01B401EB0122025902C9
S1130060900211241FBECFE5D8E0DEBFCDBF10E063
S1130070A0E6B0E0E2ECFCE002C005900D92A23FE5
S1130080B107D9F721E0A2EFB0E001C01D92AA3177
S1130090B207E1F70E9467050C945F060C94000018
S11300A01ABA80E487B987E886B9089597B187704A
S11300B0987F892B87B9369A3699FECF84B195B14A
S11300C008958130910519F00297A1F0089580E018
S11300D00E9456009C01A4E6B0E00E943C062FEF6B
S11300E033E040E050E00E94140630930601209370
S11300F00501089581E00E9456009C01A4E6B0E049
S11301000E943C062FEF33E040E050E00E941406CA
S1130110309308012093070108958DE083BF12BE38
S11301208CE98CBF82E089BF08951F920F920FB6AD
S11301300F9211248F939F9388B7826088BF809118
S1130140F2009091F30001969093F3008093F200F3
S11301509F918F910F900FBE0F901F9018958EB5A1
S11301608B608EBD1DBC1CBC8FE493EC9BBD8ABD13
S113017089B7806189BF08951F920F920FB60F92BD
S113018011242F933F934F935F936F937F938F9398
S11301909F93AF93BF93EF93FF930E941B0598B374
S11301A081E0892788BB8091F4009091F500019645
S11301B08330910528F49093F5008093F4000CC0EB
S11301C01092F5001092F40081E090E00E9461002A
S11301D082E090E00E946100809160009091610053
S11301E001969093610080936000039710F00E9441
S11301F0D905FF91EF91BF91AF919F918F917F911D
S11302006F915F914F913F912F910F900FBE0F907F
S11302101F90189525B3382F307F2F70232B25BBC3
S113022025B361702E7F262B25BBA99AEFE1FEE44E
S11302303197F1F700C0000025B32C7F25BB25B30F
S113024082959295907F9827807F9827922F9F7010
S1130250892B85BB85B38E7F682B65BBA99A8FE1FB
S11302609EE40197F1F700C0000085B38C7F85BB45
S11302700895E09104018E2F90E08730910508F0F5
S113028086C1FC01E65DFF4F0C94360660E070E029
S113029080E590E00E940A0161E070E080E090E077
S11302A00E940A0161E070E080E090E00E940A018F
S11302B061E070E080E090E00E940A0161E070E09B
S11302C080E090E00E940A0161E070E080E090E04C
S11302D00E940A0161E070E080E090E00E940A015F
S11302E061E070E080E090E00E940A0161E070E06B
S11302F08FE190E00E940A01089560E070E080E5DB
S113030090E00E940A0161E070E080E090E00E94C9
S11303100A0161E070E080E090E00E940A0161E07F
S113032070E080E090E00E940A0161E070E080E00B
S113033090E00E940A0161E070E080E090E00E9499
S11303400A0161E070E08FE190E00E940A0161E03F
S113035070E080E090E00E940A0161E070E08FE1CB
S113036090E00E940A01089560E070E080E590E06A
S11303700E940A0161E070E080E090E00E940A01BE
S113038061E070E080E090E00E940A0161E070E0CA
S113039080E090E00E940A0161E070E080E090E07B
S11303A00E940A0161E070E08FE190E00E940A017E
S11303B061E070E08FE190E00E940A0161E070E08A
S11303C080E090E00E940A0161E070E08FE190E03B
S11303D00E940A01089560E070E080E590E00E94C8
S11303E00A0161E070E080E090E00E940A0161E0AF
S11303F070E080E090E00E940A0161E070E080E03B
S113040090E00E940A0161E070E08FE190E00E94B8
S11304100A0161E070E08FE190E00E940A0161E06E
S113042070E08FE190E00E940A0161E070E080E0FA
S113043090E00E940A0161E070E08FE190E00E9488
S11304400A01089560E070E080E590E00E940A01EE
S113045061E070E080E090E00E940A0161E070E0F9
S113046080E090E00E940A0161E070E08FE190E09A
S11304700E940A0161E070E08FE190E00E940A01AD
S113048061E070E08FE190E00E940A0161E070E0B9
S11304908FE190E00E940A0161E070E080E090E06A
S11304A00E940A0161E070E08FE190E00E940A017D
S11304B0089560E070E080E590E00E940A0161E048
S11304C070E080E090E00E940A0161E070E08FE15A
S11304D090E00E940A0161E070E08FE190E00E94E8
S11304E00A0161E070E08FE190E00E940A0161E09E
S11304F070E08FE190E00E940A0161E070E08FE11A
S113050090E00E940A0161E070E080E090E00E94C7
S11305100A0161E070E08FE190E00E940A01089511
S113052060E070E080E590E00E940A0161E070E024
S11305308FE190E00E940A0161E070E08FE190E0B9
S11305400E940A0161E070E08FE190E00E940A01DC
S113055061E070E08FE190E00E940A0161E070E0E8
S11305608FE190E00E940A0161E070E08FE190E089
S11305700E940A0161E070E080E090E00E940A01BC
S113058061E070E08FE190E00E940A01089560E06C
S113059070E080E590E00E940A0161E070E080E094
S11305A090E00E940A0161E070E080E090E00E9427
S11305B00A0161E070E080E090E00E940A0161E0DD
S11305C070E080E090E00E940A0161E070E080E069
S11305D090E00E940A0161E070E080E090E00E94F7
S11305E00A0161E070E080E090E00E940A0161E0AD
S11305F070E08FE190E00E940A01089560E070E0ED
S113060080E490E00E940A0161E070E081E090E003
S11306100E940A0161E070E081E090E00E940A011A
S113062061E070E081E090E00E940A0161E070E026
S113063081E090E00E940A0161E070E083E090E0D4
S11306400E940A0161E070E087E090E00E940A01E4
S113065061E070E08DE090E00E940A0161E070E0EA
S113066089E190E00E940A0160E070E088E490E093
S11306700E940A0161E070E080E190E00E940A01BA
S113068061E070E080E190E00E940A0161E070E0C6
S113069080E190E00E940A0161E070E080E190E076
S11306A00E940A0161E070E088E190E00E940A0182
S11306B061E070E08CE190E00E940A0161E070E08A
S11306C086E190E00E940A0161E070E083E190E03D
S11306D00E940A0108958FEF84BB60E070E083E01C
S11306E090E00E940A018FE19EE40197F1F700C0B7
S11306F0000060E070E083E090E00E940A018FE176
S11307009EE40197F1F700C0000060E070E083E030
S113071090E00E940A018FE19EE40197F1F700C086
S1130720000060E070E082E090E00E940A018FE146
S11307309EE40197F1F700C0000060E070E08CE0F7
S113074090E00E940A018FE19EE40197F1F700C056
S1130750000060E070E081E090E00E940A018FE117
S11307609EE40197F1F700C0000060E070E080E8CB
S113077090E00E940A018FE19EE40197F1F700C026
S1130780000060E070E081E090E00E940A010E94B5
S1130790FE020895EF92FF920F931F93CF93DF937E
S11307A08C017C01C0E0D0E009C0F70181917F0198
S11307B061E070E090E00E940A012196F801019046
S11307C00020E9F73197E01BF10BCE17DF0768F340
S11307D0DF91CF911F910F91FF90EF900895CF93E8
S11307E0DF9360E070E081E090E00E940A0160E045
S11307F070E080E890E00E940A0182E690E00E94A6
S1130800CA03C5E0D0E061E070E080E290E00E94BD
S11308100A012197C1F709C061E070E080E290E02D
S11308200E940A012197C1F70DC060E070E080ECDE
S113083090E00E940A018DE690E00E94CA03C5E0A0
S1130840D0E0EACFDF91CF91089560E070E081E0DD
S113085090E00E940A0160E070E080E890E00E946D
S11308600A0188E790E00E94CA03089560E070E0FE
S113087080EC90E00E940A018AE091E00E94CA03A1
S1130880089560E070E081E090E00E940A0160E079
S113089070E080E890E00E940A0189E890E00E94FC
S11308A0CA030895CF93DF938091040190E00E94DE
S11308B0390160E070E080EC90E00E940A0161E0A0
S11308C070E080E090E00E940A01C8E0D0E061E0BE
S11308D070E082E090E00E940A012197C1F761E094
S11308E070E081E090E00E940A01DF91CF910895C9
S11308F0CF93DF939C0164E670E00E940006CB0175
S1130900CAE0D0E0BE010E940006FC01C901BE019C
S11309100E940006382FCB01BE010E940006282F3A
S1130920309769F4892B29F490E3930F30E020E0A9
S11309300AC090E3920F20E3230F30E004C090E359
S11309409E0F205D305DE6EFF0E0908321833283DB
S11309501382CF01DF91CF91089560E070E08AE8BF
S113096090E00E940A0180910501909106010E9485
S113097078040E94CA038AE990E00E94CA038CE9C1
S113098090E00E94CA0360E070E08AEC90E00E946C
S11309900A0180910701909108010E9478040E9445
S11309A0CA038AE990E00E94CA038CE990E00E949D
S11309B0CA03089560E070E081E090E00E940A01BB
S11309C060E070E080E890E00E940A018FE990E026
S11309D00E94CA0360E070E080EC90E00E940A018B
S11309E084EA90E00E94CA03089560E070E081E028
S11309F090E00E940A0160E070E080E890E00E94CC
S1130A000A0189EA90E00E94CA03089560E070E058
S1130A1084E890E00E940A0189EB90E00E94CA03F6
S1130A2060E070E084EC90E00E940A0186EC90E0C3
S1130A300E94CA03089580910901813049F058F059
S1130A40823019F0833051F00CC00E9406050895DD
S1130A500E94AD0408950E94360408950E94520431
S1130A60089560E070E080E890E00E940A0180ED63
S1130A7090E00E94CA030895B89A0895EAEFF0E05E
S1130A80108281E0818382E0828383E083838FEF1D
S1130A908483858386838783808781878AE0E6EDE4
S1130AA0F0E0AAE0B1E001900D928A95E1F710928E
S1130AB0060110920501109208011092070110928C
S1130AC0040108950E943C050E943E0508950E9479
S1130AD062050E948D000E94AF000E9450000E9497
S1130AE06B030E94D2050E94F5042FEF83ED90E37F
S1130AF0215080409040E1F700C0000083E00E9454
S1130B00A3057894FFCF813049F028F0823049F072
S1130B10833051F00CC00E94250408950E94EF0315
S1130B2008950E94DA0408950E944104089581E121
S1130B30E0EEF0E0AAE0B1E001900D928A95E1F7D1
S1130B400E942504089590910901891751F190910B
S1130B50FA00981739F0EBEFF0E024E031E09191DE
S1130B60981305C0809309010E94830504C0E2170D
S1130B70F307A9F707C08FE59AEE0197F1F700C0D4
S1130B80000008958AE0E6EDF0E0AAE0B1E001900B
S1130B900D928A95E1F71092090180E00E94830585
S1130BA0EACF089587B3837087BB88B38C6F88BB03
S1130BB00895B29904C086E0809304010895B3991E
S1130BC004C085E0809304010895B49904C084E0CE
S1130BD0809304010895B59904C083E080930401CF
S1130BE00895B69904C082E0809304010895B799EA
S1130BF004C081E0809304010895109204010895D3
S1130C0097FB072E16F4009407D077FD09D00E94B5
S1130C104B0607FC05D03EF4909581959F4F0895AF
S1130C20709561957F4F0895A1E21A2EAA1BBB1BF4
S1130C30FD010DC0AA1FBB1FEE1FFF1FA217B307A4
S1130C40E407F50720F0A21BB30BE40BF50B661FBA
S1130C50771F881F991F1A9469F76095709580957E
S1130C6090959B01AC01BD01CF010895EE0FFF1FCC
S1130C700590F491E02D0994A29FB001B39FC001A7
S1130C80A39F700D811D1124911DB29F700D811DB4
S1130C901124911D0895AA1BBB1B51E107C0AA1F73
S1130CA0BB1FA617B70710F0A61BB70B881F991F09
S1130CB05A95A9F780959095BC01CD010895F894B3
S1050CC0FFCF60
S1130CC2C90053656E736F7220313A200053656E0A
S1130CD2736F7220323A20004552524F5253204FC2
S1130CE2434355525245443A0054414E4B205741D6
S1130CF2544552204C4556454C00250020200044C2
S1130D026174650054696D6500496E697469616C4A
S1130D12697A696E672E2E2E00203031204150529E
S1130D222032303137002032333A34323A3531000E
S1130D326572726F72004E6F206572726F72730009
S1130D4257726F6E67206D656E75207469746C6579
S1050D5200009B
S9030000FC
