:100000000C945E000C947B000C947B000C947B00A1
:100010000C947B000C947B000C947B000C947F016F
:100020000C947B000C947B000C947B000C947B0064
:100030000C947B000C9498070C947B000C947B0030
:100040000C947B000C947B000C947B000C947B0044
:100050000C947B009602CD0204033B037203A903B8
:10006000E00308000000BE922449123EABAAAA2A6F
:10007000BECDCCCC4C3E00000080BEABAAAAAA3EAE
:1000800000000000BF000000803F000000000008EA
:100090004178D3BB4387D1133D190E3CC3BD428287
:1000A000AD2B3E68EC8276BED98FE1A93E4C80EF45
:1000B000FFBE01C4FF7F3F000000000011241FBEEF
:1000C000CFE5D8E0DEBFCDBF11E0A0E6B0E0E8EDBF
:1000D000F7E102C005900D92AA31B107D9F721E0EE
:1000E000AAE1B1E001C01D92A235B207E1F70E947A
:1000F00006080C94EA0B0C9400001ABA80E487B945
:1001000087E886B9089597B18770987F892B87B95A
:10011000369A3699FECF84B195B10895CF92DF9289
:10012000EF92FF9282E00E9483009C01A8E8B3E175
:100130000E94BC0B2FEF33E040E050E00E94750BB3
:1001400069017A0144275527A0E1B7E20E94CB0B51
:1001500028E833E12C193D0940E050E00E94750B7E
:10016000B90180E090E00E94740920E030E44CE1A5
:1001700056E40E94CC080E940A0A20E030E44CE1D8
:1001800056E40E94520A0E943E099B01AC01A4E67B
:10019000B0E00E94CB0B24E030E140E050E00E9450
:1001A000970B265E324F4F4F5F4F60E071EE85EF49
:1001B00095E00E94970BDA01C9018B529B46A10979
:1001C000B1098093320190933301A0933401B0932D
:1001D0003501FF90EF90DF90CF9008958130910529
:1001E00019F00297A1F0089580E00E9483009C011D
:1001F000A4E6B0E00E94BC0B2FEF33E040E050E0FB
:100200000E94750B30933D0120933C01089581E0DD
:100210000E9483009C01A4E6B0E00E94BC0B2FEF7B
:1002200033E040E050E00E94750B30933F01209393
:100230003E01089581B38F7381BB82B38F7382BBFC
:10024000809131018E7F8D7F80933101089590B32D
:1002500092959695969593708091310190FB80F9D7
:100260008093310180FF03C00E948108089580B30C
:10027000881F8827881F9091310180FB91F9909306
:100280003101089580913A0190913B0101968C33A0
:1002900091052CF490933B0180933A010895E6E395
:1002A000F1E0158214828281938101968C3391054D
:1002B0002CF490933901809338010895E6E3F1E03E
:1002C00013821282808191810196883191052CF4EC
:1002D0009093370180933601089510923701109260
:1002E000360108958EB58B608EBD1DBC1CBC8FE49D
:1002F00093EC9BBD8ABD89B7806189BF08951F9229
:100300000F920FB60F9211242F933F934F935F9349
:100310006F937F938F939F93AF93BF93EF93FF93CD
:100320000E945A0780911E0190911F01019685300D
:10033000910528F490931F0180931E012BC0109209
:100340001F0110921E010E94420198B381E089278B
:1003500088BB6091300181E00E94A70760913C0159
:1003600082E00E94A70760913E0183E00E94A707F8
:100370006091320170913301809134019091350187
:1003800024E630E040E050E00E94970B622F84E0CA
:100390000E94A7078091200190912101019683304E
:1003A000910528F490932101809320010CC01092B4
:1003B00021011092200181E090E00E94EE0082E095
:1003C00090E00E94EE0080916000909161000196A3
:1003D0008330910528F490936100809360000AC0F7
:1003E00010926100109260000E9427010E94A508EF
:1003F0000E948E0080913C0190913D01449700F550
:1004000080913E0190913F014497D0F48091310159
:1004100083FD16C080911C0190911D01019690935F
:100420001D0180931C018436910570F0809131018B
:1004300084608093310110921D0110921C0104C050
:1004400010921D0110921C01809131018C7084303A
:1004500039F4959A8091310188608B7F80933101C6
:100460008091310183FF15C080911A0190911B0189
:10047000019690931B0180931A01449750F0959830
:1004800080913101877F8093310110921B0110927E
:100490001A01FF91EF91BF91AF919F918F917F9141
:1004A0006F915F914F913F912F910F900FBE0F90E1
:1004B0001F90189525B3382F307F2F70232B25BB25
:1004C00025B361702E7F262B25BBA99AEFE3FFE1B0
:1004D0003197F1F700C0000025B32C7F25BB25B371
:1004E00082959295907F9827807F9827922F9F7072
:1004F000892B85BB85B38E7F682B65BBA99A8FE35B
:100500009FE10197F1F700C0000085B38C7F85BBA8
:100510000895E09130018E2F90E08730910508F02A
:1005200086C1FC01E65DFF4F0C94B60B60E070E005
:1005300080E590E00E945A0261E070E080E090E087
:100540000E945A0261E070E080E090E00E945A024E
:1005500061E070E080E090E00E945A0261E070E0AB
:1005600080E090E00E945A0261E070E080E090E05C
:100570000E945A0261E070E080E090E00E945A021E
:1005800061E070E080E090E00E945A0261E070E07B
:100590008FE190E00E945A02089560E070E080E5EB
:1005A00090E00E945A0261E070E080E090E00E94DA
:1005B0005A0261E070E080E090E00E945A0261E03F
:1005C00070E080E090E00E945A0261E070E080E01C
:1005D00090E00E945A0261E070E080E090E00E94AA
:1005E0005A0261E070E08FE190E00E945A0261E0FF
:1005F00070E080E090E00E945A0261E070E08FE1DC
:1006000090E00E945A02089560E070E080E590E07A
:100610000E945A0261E070E080E090E00E945A027D
:1006200061E070E080E090E00E945A0261E070E0DA
:1006300080E090E00E945A0261E070E080E090E08B
:100640000E945A0261E070E08FE190E00E945A023D
:1006500061E070E08FE190E00E945A0261E070E09A
:1006600080E090E00E945A0261E070E08FE190E04B
:100670000E945A02089560E070E080E590E00E94D8
:100680005A0261E070E080E090E00E945A0261E06E
:1006900070E080E090E00E945A0261E070E080E04B
:1006A00090E00E945A0261E070E08FE190E00E94C9
:1006B0005A0261E070E08FE190E00E945A0261E02E
:1006C00070E08FE190E00E945A0261E070E080E00B
:1006D00090E00E945A0261E070E08FE190E00E9499
:1006E0005A02089560E070E080E590E00E945A02AE
:1006F00061E070E080E090E00E945A0261E070E00A
:1007000080E090E00E945A0261E070E08FE190E0AA
:100710000E945A0261E070E08FE190E00E945A026C
:1007200061E070E08FE190E00E945A0261E070E0C9
:100730008FE190E00E945A0261E070E080E090E07A
:100740000E945A0261E070E08FE190E00E945A023C
:10075000089560E070E080E590E00E945A0261E058
:1007600070E080E090E00E945A0261E070E08FE16A
:1007700090E00E945A0261E070E08FE190E00E94F8
:100780005A0261E070E08FE190E00E945A0261E05D
:1007900070E08FE190E00E945A0261E070E08FE12A
:1007A00090E00E945A0261E070E080E090E00E94D8
:1007B0005A0261E070E08FE190E00E945A020895D1
:1007C00060E070E080E590E00E945A0261E070E035
:1007D0008FE190E00E945A0261E070E08FE190E0CA
:1007E0000E945A0261E070E08FE190E00E945A029C
:1007F00061E070E08FE190E00E945A0261E070E0F9
:100800008FE190E00E945A0261E070E08FE190E099
:100810000E945A0261E070E080E090E00E945A027B
:1008200061E070E08FE190E00E945A02089560E07C
:1008300070E080E590E00E945A0261E070E080E0A4
:1008400090E00E945A0261E070E080E090E00E9437
:100850005A0261E070E080E090E00E945A0261E09C
:1008600070E080E090E00E945A0261E070E080E079
:1008700090E00E945A0261E070E080E090E00E9407
:100880005A0261E070E080E090E00E945A0261E06C
:1008900070E08FE190E00E945A02089560E070E0FD
:1008A00080E490E00E945A0261E070E081E090E014
:1008B0000E945A0261E070E081E090E00E945A02DA
:1008C00061E070E081E090E00E945A0261E070E037
:1008D00081E090E00E945A0261E070E083E090E0E5
:1008E0000E945A0261E070E087E090E00E945A02A4
:1008F00061E070E08DE090E00E945A0261E070E0FB
:1009000089E190E00E945A0260E070E088E490E0A3
:100910000E945A0261E070E080E190E00E945A0279
:1009200061E070E080E190E00E945A0261E070E0D6
:1009300080E190E00E945A0261E070E080E190E086
:100940000E945A0261E070E088E190E00E945A0241
:1009500061E070E08CE190E00E945A0261E070E09A
:1009600086E190E00E945A0261E070E083E190E04D
:100970000E945A0208958FEF84BB60E070E083E02C
:1009800090E00E945A028FE59DE60197F1F700C0C2
:10099000000060E070E083E090E00E945A028FE582
:1009A0009DE60197F1F700C0000060E070E083E091
:1009B00090E00E945A028FE59DE60197F1F700C092
:1009C000000060E070E082E090E00E945A028FE553
:1009D0009DE60197F1F700C0000060E070E08CE058
:1009E00090E00E945A028FE59DE60197F1F700C062
:1009F000000060E070E081E090E00E945A028FE524
:100A00009DE60197F1F700C0000060E070E080E82B
:100A100090E00E945A028FE59DE60197F1F700C031
:100A2000000060E070E081E090E00E945A020E94C5
:100A30004E040895EF92FF920F931F93CF93DF938D
:100A40008C017C01C0E0D0E009C0F70181917F01F9
:100A500061E070E090E00E945A022196F801019056
:100A60000020E9F73197E01BF10BCE17DF0768F3A1
:100A7000DF91CF911F910F91FF90EF900895CF9349
:100A8000DF9360E070E081E090E00E945A0260E055
:100A900070E080E890E00E945A0282E690E00E94B6
:100AA0001A05C5E0D0E061E070E080E290E00E94CD
:100AB0005A022197C1F709C061E070E080E290E03E
:100AC0000E945A022197C1F70DC060E070E080ECEF
:100AD00090E00E945A028DE690E00E941A05C5E05F
:100AE000D0E0EACFDF91CF91089560E070E081E03F
:100AF00090E00E945A0260E070E080E890E00E947E
:100B00005A0288E790E00E941A05089560E070E0BC
:100B100081E090E00E945A0260E070E080E890E09E
:100B20000E945A0289E890E00E941A0560E070E095
:100B300084EC90E00E945A0261E070E08FED90E05A
:100B40000E945A0261E070E083E490E00E945A0241
:100B5000089560E070E081E090E00E945A0260E059
:100B600070E080E890E00E945A0285E990E00E94DF
:100B70001A05089560E070E080EC90E00E945A024F
:100B800081E491E00E941A05089560E070E081E040
:100B900090E00E945A0260E070E080E890E00E94DD
:100BA0005A0283EA90E00E941A050895CF93DF93DA
:100BB0008091300190E00E94890260E070E080EC5A
:100BC00090E00E945A0261E070E080E090E00E94B4
:100BD0005A02C8E0D0E061E070E082E090E00E945C
:100BE0005A022197C1F761E070E081E090E00E9435
:100BF0005A02DF91CF910895CF93DF939C0164E671
:100C000070E00E94610BCB01CAE0D0E0BE010E94FF
:100C1000610BFC01C901BE010E94610B382FCB01A1
:100C2000BE010E94610B282F309769F4892B29F4AB
:100C300090E3930F30E020E00AC090E3920F20E3AE
:100C4000230F30E004C090E39E0F205D305DE2E2B0
:100C5000F1E09083218332831382CF01DF91CF9122
:100C6000089560E070E08AE890E00E945A02809166
:100C70003C0190913D010E94FC050E941A0584EB05
:100C800090E00E941A0586EB90E00E941A0560E051
:100C900070E08AEC90E00E945A0280913E019091AF
:100CA0003F010E94FC050E941A0584EB90E00E941F
:100CB0001A0586EB90E00E941A050895CF92DF9204
:100CC000EF92FF9260E070E080EC90E00E945A02A8
:100CD000609132017091330180913401909135011E
:100CE00028EE33E040E050E00E94970B0F2EFAE030
:100CF000CF2ED12CE12CF12CF02DCA01B901A70186
:100D000096010E94970BCB01C09661E070E00E94B3
:100D10005A026091320170913301809134019091B7
:100D2000350124E630E040E050E00E94970BCA0114
:100D3000B901A70196010E94970BCB01C09661E013
:100D400070E00E945A0261E070E08EE290E00E9442
:100D50005A02609132017091330180913401909177
:100D60003501A70196010E94970BCA01B901A7019D
:100D700096010E94970BCB01C09661E070E00E9443
:100D80005A02FF90EF90DF90CF90089560E070E0FE
:100D900081E090E00E945A0260E070E080E890E01C
:100DA0000E945A0289EB90E00E941A0560E070E010
:100DB00080EC90E00E945A028EEB90E00E941A05AF
:100DC000089560E070E081E090E00E945A0260E0E7
:100DD00070E080E890E00E945A0283EC90E00E946C
:100DE0001A0508950F931F93CF93DF9360E070E08F
:100DF00084E890E00E945A0283ED90E00E941A0578
:100E000060E070E085EC90E00E945A02C6E3D1E019
:100E1000888199810AE010E0B8010E94610BCB0142
:100E200061E070E0C0960E945A0288819981B80101
:100E30000E94610B61E070E0C0960E945A0261E07E
:100E400070E08AE390E00E945A028A819B81B80197
:100E50000E94610BCB0161E070E0C0960E945A02D3
:100E60008A819B81B8010E94610B61E070E0C096AD
:100E70000E945A0261E070E08AE390E00E945A0208
:100E80008C819D81B8010E94610BCB0161E070E013
:100E9000C0960E945A028C819D81B8010E94610B0C
:100EA00061E070E0C0960E945A02DF91CF911F91DD
:100EB0000F91089580914001823061F028F48823D9
:100EC000E9F08130C1F020C0843051F0D0F085309D
:100ED00021F01AC00E94F20608950E945E0608954D
:100EE00060E070E080EC90E00E945A0280EE90E0BA
:100EF0000E941A0508950E94310608950E94BA05BD
:100F000008950E94D605089560E070E080EC90E0BE
:100F10000E945A0288EE90E00E941A05089588E126
:100F20008AB986E880BD10BC87E689B9579A0895CA
:100F30001F920F920FB60F9211248F938CB1809352
:100F400051018F910F900FBE0F901F9018951CB8F4
:100F5000EFEDFEE23197F1F700C000001CB8EFEDB5
:100F6000FEE23197F1F700C000008CB98FED9EE2F0
:100F70000197F1F700C000006CB9EFEDFEE2319788
:100F8000F1F700C0000008958D9A95980895B89AD9
:100F90000895E6E2F1E0108281E0818382E08283BD
:100FA00083E0838384E0848385E085838FEF868379
:100FB0008783808781878AE0E4EFF0E0A1E4B1E0F5
:100FC00001900D928A95E1F710923D0110923C013B
:100FD00010923F0110923E01109230018BE190E09F
:100FE000A0E0B0E08093320190933301A0933401EC
:100FF000B0933501809131018B7F877F80933101E0
:1010000008950E94C7070E94C90708950E94010819
:101010000E948F070E9472010E947D000E94BB0403
:101020000E949E080E941A010E94C4070E94E106C5
:101030002FEF83ED90E3215080409040E1F700C016
:10104000000081E00E9452087894FFCF8230C1F006
:1010500028F4882349F0813081F018C0843051F0A1
:1010600090F0853021F012C00E94750508950E940D
:10107000860508950E94A90508950E943F050895D8
:101080000E94C60608950E94C505089581E1EEEF0D
:10109000F0E0A1E4B1E001900D928A95E1F70E94A1
:1010A0007505089590914001891751F1909126019D
:1010B000981739F0E7E2F1E020E331E091919813DD
:1010C00005C0809340010E94260804C0E217F30780
:1010D000A9F707C08FE59AEE0197F1F700C000006D
:1010E00008958BE0EFE0F1E0A1E4B1E001900D9212
:1010F0008A95E1F71092400180E00E942608EACF2D
:10110000089580914001823069F018F4813031F007
:101110000895833059F0843069F0089582E00E9488
:101120005208089583E00E945208089584E00E94C6
:101130005208089581E00E945208089587B3837091
:1011400087BB88B38C6F88BB0895B29904C086E0D2
:10115000809330010895B39904C085E080933001F5
:101160000895B49904C084E0809330010895B5993E
:1011700004C083E0809330010895B69904C082E0F2
:10118000809330010895B79904C081E080933001C5
:1011900008951092300108950E94E0080C94C80947
:1011A0000E94C10958F00E94BA0940F029F45F3F3B
:1011B00029F00C94B10951110C94FC090C94B70955
:1011C0000E94D90968F39923B1F3552391F3951B34
:1011D000550BBB27AA2762177307840738F09F5F58
:1011E0005F4F220F331F441FAA1FA9F335D00E2EC5
:1011F0003AF0E0E832D091505040E695001CCAF732
:101200002BD0FE2F29D0660F771F881FBB1F2617F4
:1012100037074807AB07B0E809F0BB0B802DBF01CB
:10122000FF2793585F4F3AF09E3F510578F00C949A
:10123000B1090C94FC095F3FE4F3983ED4F3869522
:1012400077956795B795F7959F5FC9F7880F911DBB
:101250009695879597F90895E1E0660F771F881FA7
:10126000BB1F621773078407BA0720F0621B730B5A
:10127000840BBA0BEE1F88F7E09508950E9445098C
:101280006894B1110C94FC0908950E94E10988F05A
:101290009F5798F0B92F9927B751B0F0E1F0660F3A
:1012A000771F881F991F1AF0BA95C9F714C0B1307B
:1012B00091F00E94FB09B1E008950C94FB09672F9F
:1012C000782F8827B85F39F0B93FCCF386957795AA
:1012D0006795B395D9F73EF4909580957095619593
:1012E0007F4F8F4F9F4F0895E89409C097FB3EF4BE
:1012F00090958095709561957F4F8F4F9F4F992363
:10130000A9F0F92F96E9BB279395F69587957795E0
:101310006795B795F111F8CFFAF4BB0F11F460FFA0
:101320001BC06F5F7F4F8F4F9F4F16C0882311F0F8
:1013300096E911C0772321F09EE8872F762F05C00C
:10134000662371F096E8862F70E060E02AF09A95A7
:10135000660F771F881FDAF7880F9695879597F99C
:10136000089597F99F6780E870E060E008959FEF27
:1013700080EC089500240A9416161706180609062C
:10138000089500240A9412161306140605060895FB
:10139000092E0394000C11F4882352F0BB0F40F483
:1013A000BF2B11F460FF04C06F5F7F4F8F4F9F4FC3
:1013B000089557FD9058440F551F59F05F3F71F045
:1013C0004795880F97FB991F61F09F3F79F08795AC
:1013D0000895121613061406551FF2CF4695F1DF35
:1013E00008C0161617061806991FF1CF86957105C5
:1013F000610508940895E894BB2766277727CB01F9
:1014000097F9089516F00C942C0B0C94B709689476
:101410000C94B1090E94E109A8F39923C1F3AEF33A
:10142000DF93CF931F930F93FF92C92FDD2788235C
:101430002AF02197660F771F881FDAF720E030E047
:1014400040E85FEB9FE3883920F0803E38F021963A
:101450008F770E94C00AE2E6F0E004C00E94C00A52
:10146000EFE8F0E00E943A0B8B01BE01EC01FB2E8D
:101470006F5771097595771F880B990B0E94760934
:1014800028E132E741E35FE30E94650AAF2D98014E
:10149000AE01FF900F911F91CF91DF910E94D70A6B
:1014A0000C94C8090E94650A0C94C8090E94BA09E4
:1014B00038F00E94C10920F0952311F00C94B10975
:1014C0000C94B70911240C94FC090E94D90970F3FB
:1014D000959FC1F3950F50E0551F629FF001729FD9
:1014E000BB27F00DB11D639FAA27F00DB11DAA1FE8
:1014F000649F6627B00DA11D661F829F2227B00D35
:10150000A11D621F739FB00DA11D621F839FA00DBF
:10151000611D221F749F3327A00D611D231F849F0F
:10152000600D211D822F762F6A2F11249F57504066
:101530009AF0F1F088234AF0EE0FFF1FBB1F661FE1
:10154000771F881F91505040A9F79E3F510580F0AA
:101550000C94B1090C94FC095F3FE4F3983ED4F37A
:10156000869577956795B795F795E7959F5FC1F74E
:10157000FE2B880F911D9695879597F908955058E1
:10158000BB27AA270E94D70A0C94C8090E94BA094F
:1015900038F00E94C10920F039F49F3F19F426F475
:1015A0000C94B7090EF4E095E7FB0C94B109E92F10
:1015B0000E94D90958F3BA17620773078407950781
:1015C00020F079F4A6F50C94FB090EF4E0950B2EAF
:1015D000BA2FA02D0B01B90190010C01CA01A00185
:1015E0001124FF27591B99F0593F50F4503E68F1E0
:1015F0001A16F040A22F232F342F4427585FF3CF21
:10160000469537952795A795F0405395C9F77EF4F1
:101610001F16BA0B620B730B840BBAF09150A1F03A
:10162000FF0FBB1F661F771F881FC2F70EC0BA0FC0
:10163000621F731F841F48F4879577956795B79548
:10164000F7959E3F08F0B0CF9395880F08F0992743
:10165000EE0F9795879508959F3F31F0915020F4B4
:10166000879577956795B795880F911D969587957E
:1016700097F90895DF93CF931F930F93FF92EF9203
:10168000DF927B018C01689406C0DA2EEF010E9484
:10169000650AFE01E894A5912591359145915591F2
:1016A000A6F3EF010E94D70AFE019701A801DA9480
:1016B00069F7DF90EF90FF900F911F91CF91DF912D
:1016C000089597FB072E16F4009407D077FD09D0F4
:1016D0000E94D60B07FC05D03EF4909581959F4F54
:1016E0000895709561957F4F0895A1E21A2EAA1B67
:1016F000BB1BFD010DC0AA1FBB1FEE1FFF1FA217C2
:10170000B307E407F50720F0A21BB30BE40BF50BBE
:10171000661F771F881F991F1A9469F76095709547
:10172000809590959B01AC01BD01CF010895052ED8
:1017300097FB1EF400940E94AE0B57FD07D00E9449
:10174000750B07FC03D04EF40C94AE0B50954095EE
:10175000309521953F4F4F4F5F4F0895909580955D
:10176000709561957F4F8F4F9F4F0895EE0FFF1F2C
:101770000590F491E02D0994A29FB001B39FC001A0
:10178000A39F700D811D1124911DB29F700D811DAD
:101790001124911D08950E94BC0BA59F900DB49F2C
:1017A000900DA49F800D911D11240895AA1BBB1BB1
:1017B00051E107C0AA1FBB1FA617B70710F0A61B51
:1017C000B70B881F991F5A95A9F780959095BC0172
:0817D000CD010895F894FFCF4C
:1017D800C90053656E736F7220313A200053656EED
:1017E800736F7220323A20004552524F5253204FA5
:1017F800434355525245443A0054454D5045524191
:10180800545552450042415454455259204C45566E
:10181800454C0054414E4B205741544552204C45AD
:1018280056454C0025002020004461746500546929
:101838006D6500496E697469616C697A696E672EB5
:101848002E2E00203031204D4159203230313700C2
:101858006261747465727900666174616C20657286
:10186800726F72004E6F206572726F7273005772DA
:101878006F6E67206D656E75207469746C650057AE
:0A188800726F6E67206D656E7500CB
:00000001FF
