S0160000536D617274466C6F776572706F742E7372656345
S11300000C942A000C9447000C9447000C9447006D
S11300100C9447000C9447000C9447000C94B900CE
S11300200C9447000C9447000C9492000C944700E5
S11300300C9447000C9447000C9447000C94470020
S11300400C9447000C9447000C9447000C94470010
S11300500C94470011241FBECFE5D8E0DEBFCDBF0E
S113006010E0A0E6B0E0E4E0F6E002C005900D92F6
S1130070A23BB107D9F720E0A2EBB0E001C01D928A
S1130080AF3BB207E1F70E948B020C9400030C947F
S113009000001ABA80E487B987E886B9089597B151
S11300A08770987F892B87B9369A3699FECF84B1A9
S11300B095B108958130910519F00297A1F0089542
S11300C080E00E944F009C01A4E6B0E00E94DD02A3
S11300D02FEF33E040E050E00E94BB023093BB00BE
S11300E02093BA00089581E00E944F009C01A4E689
S11300F0B0E00E94DD022FEF33E040E050E00E94C8
S1130100BB023093BD002093BC00089587B38F7069
S113011087BB08958DE083BF12BE8CE98CBF82E05B
S113012089BF08951F920F920FB60F9211248F93D7
S11301309F9388B7826088BF8091B2009091B3008A
S113014001969093B3008093B2009F918F910F908A
S11301500FBE0F901F9018958EB58B608EBD1DBC81
S11301601CBC8FE493EC9BBD8ABD89B7806189BFB9
S113017008951F920F920FB60F9211242F933F935D
S11301804F935F936F937F938F939F93AF93BF939B
S1130190EF93FF930E94690298B381E0892788BB9B
S11301A08091B4009091B50001968530910528F4B2
S11301B09093B5008093B4000CC01092B5001092D7
S11301C0B40081E090E00E945A0082E090E00E9436
S11301D05A00FF91EF91BF91AF919F918F917F91C1
S11301E06F915F914F913F912F910F900FBE0F90A0
S11301F01F90189525B3382F307F2F70232B25BBE4
S113020025B361702E7F262B25BBA99AEFE1FEE46E
S11302103197F1F700C0000025B32C7F25BB25B32F
S113022082959295907F9827807F9827922F9F7030
S1130230892B85BB85B38E7F682B65BBA99A8FE11B
S11302409EE40197F1F700C0000085B38C7F85BB65
S113025008958FEF84BB60E070E083E090E00E943B
S1130260FA008FE19EE40197F1F700C0000060E01E
S113027070E083E090E00E94FA008FE19EE4019731
S1130280F1F700C0000060E070E083E090E00E94BD
S1130290FA008FE19EE40197F1F700C0000060E0EE
S11302A070E082E090E00E94FA008FE19EE4019702
S11302B0F1F700C0000060E070E08CE090E00E9484
S11302C0FA008FE19EE40197F1F700C0000060E0BE
S11302D070E081E090E00E94FA008FE19EE40197D3
S11302E0F1F700C0000060E070E080E890E00E9458
S11302F0FA008FE19EE40197F1F700C0000060E08E
S113030070E081E090E00E94FA000895EF92FF927D
S11303100F931F93CF93DF938C017C01C0E0D0E057
S113032009C0F70181917F0161E070E090E00E94D3
S1130330FA002196F80101900020E9F73197E01BBB
S1130340F10BCE17DF0768F3DF91CF911F910F9167
S1130350FF90EF900895CF93DF9360E070E081E029
S113036090E00E94FA0060E070E080E890E00E9473
S1130370FA0080E690E00E948601C5E0D0E061E0EA
S113038070E080E290E00E94FA002197C1F709C072
S113039061E070E080E290E00E94FA002197C1F7EA
S11303A00DC060E070E080EC90E00E94FA008BE603
S11303B090E00E948601C5E0D0E0EACFDF91CF91C2
S11303C00895CF93DF939C0164E670E00E94A70236
S11303D0CB01CAE0D0E0BE010E94A702FC01C90122
S11303E0BE010E94A702382FCB01BE010E94A702C2
S11303F0282F309769F4892B29F490E3930F30E088
S113040020E00AC090E3920F20E3230F30E004C001
S113041090E39E0F205D305DE6EBF0E09083218356
S113042032831382CF01DF91CF91089560E070E0B1
S11304308AE890E00E94FA008091BA009091BB0093
S11304400E94E1010E94860186E790E00E948601F5
S113045088E790E00E94860160E070E08AEC90E01A
S11304600E94FA008091BC009091BD000E94E101BD
S11304700E94860186E790E00E94860188E790E06A
S11304800E948601089560E070E081E090E00E949F
S1130490FA0060E070E080E890E00E94FA0085E8ED
S11304A090E00E948601089560E070E084E890E0A6
S11304B00E94FA0085E990E00E94860160E070E005
S11304C084EC90E00E94FA0082EA90E00E948601A7
S11304D008958091BE00882329F0813031F40E9470
S11304E0540208950E941602089560E070E080E8C6
S11304F090E00E94FA008CEA90E00E948601089540
S11305001092BE001092BB001092BA001092BD006F
S11305101092BC0008950E948002B89A0E9486003E
S11305200E948A000E94AC000E9449000E94290196
S11305300E9443022FEF83ED90E3215080409040CE
S1130540E1F700C000000E94AB017894FFCF97FB55
S1130550072E16F4009407D077FD09D00E94EC0210
S113056007FC05D03EF4909581959F4F08957095B2
S113057061957F4F0895A1E21A2EAA1BBB1BFD01B2
S11305800DC0AA1FBB1FEE1FFF1FA217B307E4076E
S1130590F50720F0A21BB30BE40BF50B661F771FC6
S11305A0881F991F1A9469F76095709580959095A6
S11305B09B01AC01BD01CF010895A29FB001B39F7F
S11305C0C001A39F700D811D1124911DB29F700D58
S11305D0811D1124911D0895AA1BBB1B51E107C065
S11305E0AA1FBB1FA617B70710F0A61BB70B881FBF
S11305F0991F5A95A9F780959095BC01CD0108954E
S1070600F894FFCF98
S113060453656E736F7220313A200053656E736FB5
S11306147220323A200025002020004461746500D1
S113062454696D6500496E697469616C697A696EAF
S1130634672E2E2E0020303120415052203230318A
S113064437002032333A34323A3531006572726FEE
S105065472002E
S9030000FC
