:100000000C945E000C947B000C947B000C947B00A1
:100010000C947B000C947B000C947B000C947F016F
:100020000C947B000C947B000C947B000C947B0064
:100030000C947B000C9437070C947B000C947B0091
:100040000C947B000C947B000C947B000C947B0044
:100050000C947B0035026C02A302DA021103480300
:100060007F0308000000BE922449123EABAAAA2AD0
:10007000BECDCCCC4C3E00000080BEABAAAAAA3EAE
:1000800000000000BF000000803F000000000008EA
:100090004178D3BB4387D1133D190E3CC3BD428287
:1000A000AD2B3E68EC8276BED98FE1A93E4C80EF45
:1000B000FFBE01C4FF7F3F000000000011241FBEEF
:1000C000CFE5D8E0DEBFCDBF11E0A0E6B0E0E0E0D4
:1000D000F7E102C005900D92AA31B107D9F721E0EE
:1000E000AAE1B1E001C01D92AE34B207E1F70E946F
:1000F0009C070C947E0B0C9400001ABA80E487B91C
:1001000087E886B9089597B18770987F892B87B95A
:10011000369A3699FECF84B195B10895CF92DF9289
:10012000EF92FF9282E00E9483009C01A8E8B3E175
:100130000E94500B2FEF33E040E050E00E94090B8B
:1001400069017A0144275527A0E1B7E20E945F0BBD
:1001500028E833E12C193D0940E050E00E94090BEA
:10016000B90180E090E00E94080920E030E44CE111
:1001700056E40E9460080E949E0920E030E44CE1B1
:1001800056E40E94E6090E94D2089B01AC01A4E655
:10019000B0E00E945F0B24E030E140E050E00E94BC
:1001A0002B0B265E324F4F4F5F4F60E071EE85EFB5
:1001B00095E00E942B0BDA01C9018B529B46A109E5
:1001C000B10980932E0190932F01A0933001B09339
:1001D0003101FF90EF90DF90CF900895813091052D
:1001E00019F00297A1F0089580E00E9483009C011D
:1001F000A4E6B0E00E94500B2FEF33E040E050E067
:100200000E94090B3093390120933801089581E051
:100210000E9483009C01A4E6B0E00E94500B2FEFE7
:1002200033E040E050E00E94090B30933B01209303
:100230003A01089581B38F7381BB82B38F7382BB00
:1002400080912D018E7F8D7F80932D01089590B335
:10025000929596959695937080912D0190FB80F9DB
:1002600080932D0180FF03C00E941508089580B37C
:10027000881F8827881F90912D0180FB91F990930A
:100280002D010895809136019091370101968C33AC
:1002900091052CF490933701809336010895E2E3A1
:1002A000F1E0158214828281938101968C3391054D
:1002B0002CF490933501809334010895E2E3F1E04A
:1002C00013821282808191810196883191052CF4EC
:1002D000909333018093320108951092330110926C
:1002E000320108958EB58B608EBD1DBC1CBC8FE4A1
:1002F00093EC9BBD8ABD89B7806189BF08951F9229
:100300000F920FB60F9211242F933F934F935F9349
:100310006F937F938F939F93AF93BF93EF93FF93CD
:100320000E94F90680911A0190911B010196853077
:10033000910528F490931B0180931A010AC0109232
:100340001B0110921A010E94420198B381E0892793
:1003500088BB80911C0190911D010196833091050D
:1003600028F490931D0180931C010CC010921D0174
:1003700010921C0181E090E00E94EE0082E090E08B
:100380000E94EE00809160009091610001968330A0
:10039000910528F4909361008093600019C0109239
:1003A0006100109260000E9427010E9439080E949B
:1003B0008E0060912C0181E00E9446076091380117
:1003C00082E00E94460760913A0183E00E9446075E
:1003D000FF91EF91BF91AF919F918F917F916F911D
:1003E0005F914F913F912F910F900FBE0F901F90F3
:1003F000189525B3382F307F2F70232B25BB25B3BD
:1004000061702E7F262B25BBA99AEFE3FFE1319780
:10041000F1F700C0000025B32C7F25BB25B38295E2
:100420009295907F9827807F9827922F9F70892B95
:1004300085BB85B38E7F682B65BBA99A8FE39FE14F
:100440000197F1F700C0000085B38C7F85BB08954C
:10045000E0912C018E2F90E08730910508F086C145
:10046000FC01E65DFF4F0C944A0B60E070E080E514
:1004700090E00E94F90161E070E080E090E00E946D
:10048000F90161E070E080E090E00E94F90161E034
:1004900070E080E090E00E94F90161E070E080E0AF
:1004A00090E00E94F90161E070E080E090E00E943D
:1004B000F90161E070E080E090E00E94F90161E004
:1004C00070E080E090E00E94F90161E070E08FE16F
:1004D00090E00E94F901089560E070E080E590E00E
:1004E0000E94F90161E070E080E090E00E94F90173
:1004F00061E070E080E090E00E94F90161E070E06E
:1005000080E090E00E94F90161E070E080E090E01E
:100510000E94F90161E070E080E090E00E94F90142
:1005200061E070E08FE190E00E94F90161E070E02D
:1005300080E090E00E94F90161E070E08FE190E0DE
:100540000E94F901089560E070E080E590E00E946B
:10055000F90161E070E080E090E00E94F90161E063
:1005600070E080E090E00E94F90161E070E080E0DE
:1005700090E00E94F90161E070E080E090E00E946C
:10058000F90161E070E08FE190E00E94F90161E023
:1005900070E08FE190E00E94F90161E070E080E09E
:1005A00090E00E94F90161E070E08FE190E00E942C
:1005B000F901089560E070E080E590E00E94F901A3
:1005C00061E070E080E090E00E94F90161E070E09D
:1005D00080E090E00E94F90161E070E080E090E04E
:1005E0000E94F90161E070E08FE190E00E94F90162
:1005F00061E070E08FE190E00E94F90161E070E05D
:100600008FE190E00E94F90161E070E080E090E00D
:100610000E94F90161E070E08FE190E00E94F90131
:10062000089560E070E080E590E00E94F90161E0EB
:1006300070E080E090E00E94F90161E070E080E00D
:1006400090E00E94F90161E070E08FE190E00E948B
:10065000F90161E070E08FE190E00E94F90161E052
:1006600070E08FE190E00E94F90161E070E08FE1BD
:1006700090E00E94F90161E070E080E090E00E946B
:10068000F90161E070E08FE190E00E94F9010895C6
:1006900060E070E080E590E00E94F90161E070E0C8
:1006A00080E090E00E94F90161E070E08FE190E06D
:1006B0000E94F90161E070E08FE190E00E94F90191
:1006C00061E070E08FE190E00E94F90161E070E08C
:1006D0008FE190E00E94F90161E070E08FE190E02D
:1006E0000E94F90161E070E080E090E00E94F90171
:1006F00061E070E08FE190E00E94F901089560E010
:1007000070E080E590E00E94F90161E070E08FE127
:1007100090E00E94F90161E070E08FE190E00E94BA
:10072000F90161E070E08FE190E00E94F90161E081
:1007300070E08FE190E00E94F90161E070E08FE1EC
:1007400090E00E94F90161E070E08FE190E00E948A
:10075000F90161E070E080E090E00E94F90161E061
:1007600070E08FE190E00E94F901089560E070E090
:1007700080E590E00E94F90161E070E080E090E0A7
:100780000E94F90161E070E080E090E00E94F901D0
:1007900061E070E080E090E00E94F90161E070E0CB
:1007A00080E090E00E94F90161E070E080E090E07C
:1007B0000E94F90161E070E080E090E00E94F901A0
:1007C00061E070E080E090E00E94F90161E070E09B
:1007D0008FE190E00E94F901089560E070E080E40C
:1007E00090E00E94F90161E070E081E090E00E94F9
:1007F000F90161E070E081E090E00E94F90161E0C0
:1008000070E081E090E00E94F90161E070E081E039
:1008100090E00E94F90161E070E083E090E00E94C6
:10082000F90161E070E087E090E00E94F90161E089
:1008300070E08DE090E00E94F90161E070E089E1F4
:1008400090E00E94F90160E070E088E490E00E948E
:10085000F90161E070E080E190E00E94F90161E05F
:1008600070E080E190E00E94F90161E070E080E1D9
:1008700090E00E94F90161E070E080E190E00E9468
:10088000F90161E070E088E190E00E94F90161E027
:1008900070E08CE190E00E94F90161E070E086E197
:1008A00090E00E94F90161E070E083E190E00E9435
:1008B000F90108958FEF84BB60E070E083E090E081
:1008C0000E94F9018FE59DE60197F1F700C0000055
:1008D00060E070E083E090E00E94F9018FE59DE622
:1008E0000197F1F700C0000060E070E083E090E065
:1008F0000E94F9018FE59DE60197F1F700C0000025
:1009000060E070E082E090E00E94F9018FE59DE6F2
:100910000197F1F700C0000060E070E08CE090E02B
:100920000E94F9018FE59DE60197F1F700C00000F4
:1009300060E070E081E090E00E94F9018FE59DE6C3
:100940000197F1F700C0000060E070E080E890E0FF
:100950000E94F9018FE59DE60197F1F700C00000C4
:1009600060E070E081E090E00E94F9010E94ED03F8
:100970000895EF92FF920F931F93CF93DF938C0113
:100980007C01C0E0D0E009C0F70181917F0161E006
:1009900070E090E00E94F9012196F801019000209A
:1009A000E9F73197E01BF10BCE17DF0768F3DF9112
:1009B000CF911F910F91FF90EF900895CF93DF9308
:1009C00060E070E081E090E00E94F90160E070E09A
:1009D00080E890E00E94F90182E690E00E94B9046C
:1009E000C5E0D0E061E070E080E290E00E94F901B3
:1009F0002197C1F709C061E070E080E290E00E94B9
:100A0000F9012197C1F70DC060E070E080EC90E043
:100A10000E94F9018DE690E00E94B904C5E0D0E0A3
:100A2000EACFDF91CF91089560E070E081E090E03F
:100A30000E94F90160E070E080E890E00E94F90116
:100A400088E790E00E94B904089560E070E081E0DA
:100A500090E00E94F90160E070E080E890E00E9480
:100A6000F90189E890E00E94B90460E070E084EC4C
:100A700090E00E94F90161E070E08FED90E00E944B
:100A8000F90161E070E083E490E00E94F9010895CB
:100A900060E070E081E090E00E94F90160E070E0C9
:100AA00080E890E00E94F90185E990E00E94B90495
:100AB000089560E070E080EC90E00E94F9018DE321
:100AC00091E00E94B904089560E070E081E090E058
:100AD0000E94F90160E070E080E890E00E94F90176
:100AE00083EA90E00E94B9040895CF93DF93809148
:100AF0002C0190E00E94280260E070E080EC90E021
:100B00000E94F90161E070E080E090E00E94F9014C
:100B1000C8E0D0E061E070E082E090E00E94F9017E
:100B20002197C1F761E070E081E090E00E94F90157
:100B3000DF91CF910895CF93DF939C0164E670E03D
:100B40000E94F50ACB01CAE0D0E0BE010E94F50A7E
:100B5000FC01C901BE010E94F50A382FCB01BE017C
:100B60000E94F50A282F309769F4892B29F490E325
:100B7000930F30E020E00AC090E3920F20E3230FB0
:100B800030E004C090E39E0F205D305DEEE1F1E0C7
:100B90009083218332831382CF01DF91CF91089517
:100BA00060E070E08AE890E00E94F90180913801ED
:100BB000909139010E949B050E94B90484EB90E05A
:100BC0000E94B90486EB90E00E94B90460E070E0F6
:100BD0008AEC90E00E94F90180913A0190913B01EA
:100BE0000E949B050E94B90484EB90E00E94B90426
:100BF00086EB90E00E94B9040895CF92DF92EF92C5
:100C0000FF9260E070E080EC90E00E94F90160915A
:100C10002E0170912F01809130019091310128EEC9
:100C200033E040E050E00E942B0B0F2EFAE0CF2E75
:100C3000D12CE12CF12CF02DCA01B901A7019601AC
:100C40000E942B0BCB01C09661E070E00E94F9017D
:100C500060912E0170912F018091300190913101AE
:100C600024E630E040E050E00E942B0BCA01B901BD
:100C7000A70196010E942B0BCB01C09661E070E0AA
:100C80000E94F90161E070E08EE290E00E94F901BB
:100C900060912E0170912F0180913001909131016E
:100CA000A70196010E942B0BCA01B901A701960169
:100CB0000E942B0BCB01C09661E070E00E94F9010D
:100CC000FF90EF90DF90CF90089560E070E081E0BA
:100CD00090E00E94F90160E070E080E890E00E94FE
:100CE000F90189EB90E00E94B90460E070E080ECCB
:100CF00090E00E94F9018EEB90E00E94B904089503
:100D000060E070E081E090E00E94F90160E070E056
:100D100080E890E00E94F90183EC90E00E94B90421
:100D200008950F931F93CF93DF9360E070E084E802
:100D300090E00E94F90183ED90E00E94B90460E028
:100D400070E085EC90E00E94F901C2E3D1E0888177
:100D500099810AE010E0B8010E94F50ACB0161E038
:100D600070E0C0960E94F90188819981B8010E94C3
:100D7000F50A61E070E0C0960E94F90161E070E060
:100D80008AE390E00E94F9018A819B81B8010E9468
:100D9000F50ACB0161E070E0C0960E94F9018A81FA
:100DA0009B81B8010E94F50A61E070E0C0960E9444
:100DB000F90161E070E08AE390E00E94F9018C8122
:100DC0009D81B8010E94F50ACB0161E070E0C096F8
:100DD0000E94F9018C819D81B8010E94F50A61E0B1
:100DE00070E0C0960E94F901DF91CF911F910F91A1
:100DF000089580913C01823061F028F48823E9F065
:100E00008130C1F020C0843051F0D0F0853021F025
:100E10001AC00E94910608950E94FD05089560E0A1
:100E200070E080EC90E00E94F90180EE90E00E947A
:100E3000B90408950E94D00508950E9459050895A7
:100E40000E947505089560E070E080EC90E00E94DB
:100E5000F90188EE90E00E94B904089588E18AB90A
:100E600086E880BD10BC87E689B9579A08951F921D
:100E70000F920FB60F9211248F938CB180934D0176
:100E80008F910F900FBE0F901F9018951CB8EFED2B
:100E9000FEE23197F1F700C000001CB8EFEDFEE272
:100EA0003197F1F700C000008CB98FED9EE20197F9
:100EB000F1F700C000006CB9EFEDFEE23197F1F7F9
:100EC00000C000000895B89A0895E2E2F1E01082AF
:100ED00081E0818382E0828383E0838384E0848372
:100EE00085E085838FEF86838783808781878AE08B
:100EF000E4EFF0E0ADE3B1E001900D928A95E1F707
:100F0000109239011092380110923B0110923A016F
:100F100010922C018BE190E0A0E0B0E080932E01D4
:100F200090932F01A0933001B093310108950E9456
:100F300063070E94650708950E9497070E942E0785
:100F40000E9472010E947D000E945A040E94320891
:100F50000E941A010E9480062FEF83ED90E321503A
:100F600080409040E1F700C0000085E00E94E60765
:100F70007894FFCF8230C1F028F4882349F0813083
:100F800081F018C0843051F090F0853021F012C00B
:100F90000E94140508950E94250508950E944805A1
:100FA00008950E94DE0408950E94650608950E9437
:100FB0006405089581E1EEEFF0E0ADE3B1E001906A
:100FC0000D928A95E1F70E941405089590913C01D5
:100FD000891751F190912201981739F0E3E2F1E07D
:100FE0002CE231E09191981305C080933C010E945E
:100FF000BA0704C0E217F307A9F707C08FE59AEE16
:101000000197F1F700C0000008958BE0EFE0F1E0F8
:10101000ADE3B1E001900D928A95E1F710923C01A9
:1010200080E00E94BA07EACF089580913C018230A7
:1010300069F018F4813031F00895833059F084302C
:1010400069F0089582E00E94E607089583E00E9417
:10105000E607089584E00E94E607089581E00E9473
:10106000E607089587B3837087BB88B38C6F88BB0E
:101070000895B29904C086E080932C010895B39935
:1010800004C085E080932C010895B49904C084E0E5
:1010900080932C010895B59904C083E080932C01BE
:1010A0000895B69904C082E080932C010895B79901
:1010B00004C081E080932C01089510922C010895C2
:1010C0000E9474080C945C090E94550958F00E9413
:1010D0004E0940F029F45F3F29F00C944509511165
:1010E0000C9490090C944B090E946D0968F39923A4
:1010F000B1F3552391F3951B550BBB27AA27621714
:101100007307840738F09F5F5F4F220F331F441F20
:10111000AA1FA9F335D00E2E3AF0E0E832D0915054
:101120005040E695001CCAF72BD0FE2F29D0660F41
:10113000771F881FBB1F261737074807AB07B0E884
:1011400009F0BB0B802DBF01FF2793585F4F3AF08A
:101150009E3F510578F00C9445090C9490095F3F2F
:10116000E4F3983ED4F3869577956795B795F79510
:101170009F5FC9F7880F911D9695879597F90895F8
:10118000E1E0660F771F881FBB1F62177307840794
:10119000BA0720F0621B730B840BBA0BEE1F88F7A3
:1011A000E09508950E94D9086894B1110C949009B3
:1011B00008950E94750988F09F5798F0B92F9927D4
:1011C000B751B0F0E1F0660F771F881F991F1AF032
:1011D000BA95C9F714C0B13091F00E948F09B1E0FF
:1011E00008950C948F09672F782F8827B85F39F0FE
:1011F000B93FCCF3869577956795B395D9F73EF4CB
:1012000090958095709561957F4F8F4F9F4F089572
:10121000E89409C097FB3EF4909580957095619590
:101220007F4F8F4F9F4F9923A9F0F92F96E9BB2746
:101230009395F695879577956795B795F111F8CFC2
:10124000FAF4BB0F11F460FF1BC06F5F7F4F8F4F2D
:101250009F4F16C0882311F096E911C0772321F023
:101260009EE8872F762F05C0662371F096E8862FBB
:1012700070E060E02AF09A95660F771F881FDAF712
:10128000880F9695879597F9089597F99F6780E855
:1012900070E060E008959FEF80EC089500240A94C8
:1012A0001616170618060906089500240A94121641
:1012B0001306140605060895092E0394000C11F474
:1012C000882352F0BB0F40F4BF2B11F460FF04C021
:1012D0006F5F7F4F8F4F9F4F089557FD9058440F7A
:1012E000551F59F05F3F71F04795880F97FB991F85
:1012F00061F09F3F79F08795089512161306140642
:10130000551FF2CF4695F1DF08C0161617061806CE
:10131000991FF1CF86957105610508940895E894A9
:10132000BB2766277727CB0197F9089516F00C9411
:10133000C00A0C944B0968940C9445090E947509E5
:10134000A8F39923C1F3AEF3DF93CF931F930F93C9
:10135000FF92C92FDD2788232AF02197660F771F78
:10136000881FDAF720E030E040E85FEB9FE3883940
:1013700020F0803E38F021968F770E94540AE2E6F2
:10138000F0E004C00E94540AEFE8F0E00E94CE0AA8
:101390008B01BE01EC01FB2E6F5771097595771F0C
:1013A000880B990B0E940A0928E132E741E35FE3C9
:1013B0000E94F909AF2D9801AE01FF900F911F9186
:1013C000CF91DF910E946B0A0C945C090E94F9098D
:1013D0000C945C090E944E0938F00E94550920F0D7
:1013E000952311F00C9445090C944B0911240C948D
:1013F00090090E946D0970F3959FC1F3950F50E01D
:10140000551F629FF001729FBB27F00DB11D639FB6
:10141000AA27F00DB11DAA1F649F6627B00DA11D5C
:10142000661F829F2227B00DA11D621F739FB00D02
:10143000A11D621F839FA00D611D221F749F332772
:10144000A00D611D231F849F600D211D822F762F0B
:101450006A2F11249F5750409AF0F1F088234AF0E8
:10146000EE0FFF1FBB1F661F771F881F9150504054
:10147000A9F79E3F510580F00C9445090C94900902
:101480005F3FE4F3983ED4F3869577956795B795DB
:10149000F795E7959F5FC1F7FE2B880F911D9695F5
:1014A000879597F908955058BB27AA270E946B0A81
:1014B0000C945C090E944E0938F00E94550920F0F6
:1014C00039F49F3F19F426F40C944B090EF4E0957F
:1014D000E7FB0C944509E92F0E946D0958F3BA17F0
:1014E000620773078407950720F079F4A6F50C943A
:1014F0008F090EF4E0950B2EBA2FA02D0B01B90128
:1015000090010C01CA01A0011124FF27591B99F079
:10151000593F50F4503E68F11A16F040A22F232F85
:10152000342F4427585FF3CF469537952795A795D5
:10153000F0405395C9F77EF41F16BA0B620B730B7C
:10154000840BBAF09150A1F0FF0FBB1F661F771FED
:10155000881FC2F70EC0BA0F621F731F841F48F4A2
:10156000879577956795B795F7959E3F08F0B0CF2B
:101570009395880F08F09927EE0F97958795089512
:101580009F3F31F0915020F4879577956795B795F7
:10159000880F911D9695879597F90895DF93CF93BE
:1015A0001F930F93FF92EF92DF927B018C0168945F
:1015B00006C0DA2EEF010E94F909FE01E894A59118
:1015C0002591359145915591A6F3EF010E946B0A43
:1015D000FE019701A801DA9469F7DF90EF90FF9080
:1015E0000F911F91CF91DF91089597FB072E16F46D
:1015F000009407D077FD09D00E946A0B07FC05D044
:101600003EF4909581959F4F0895709561957F4F19
:101610000895A1E21A2EAA1BBB1BFD010DC0AA1F33
:10162000BB1FEE1FFF1FA217B307E407F50720F04B
:10163000A21BB30BE40BF50B661F771F881F991FC6
:101640001A9469F760957095809590959B01AC010F
:10165000BD01CF010895052E97FB1EF400940E9452
:10166000420B57FD07D00E94090B07FC03D04EF434
:101670000C94420B50954095309521953F4F4F4F1C
:101680005F4F089590958095709561957F4F8F4F2E
:101690009F4F0895EE0FFF1F0590F491E02D0994E0
:1016A000A29FB001B39FC001A39F700D811D1124A3
:1016B000911DB29F700D811D1124911D08950E94EE
:1016C000500BA59F900DB49F900DA49F800D911D70
:1016D00011240895AA1BBB1B51E107C0AA1FBB1F01
:1016E000A617B70710F0A61BB70B881F991F5A95AE
:1016F000A9F780959095BC01CD010895F894FFCF8E
:10170000C90053656E736F7220313A200053656EC5
:10171000736F7220323A20004552524F5253204F7D
:10172000434355525245443A0054454D5045524169
:10173000545552450042415454455259204C455647
:10174000454C0054414E4B205741544552204C4586
:1017500056454C0025002020004461746500546902
:101760006D6500496E697469616C697A696E672E8E
:101770002E2E00203031204D41592032303137009B
:101780006261747465727900666174616C2065725F
:10179000726F72004E6F206572726F7273005772B3
:1017A0006F6E67206D656E75207469746C65005787
:0A17B000726F6E67206D656E7500A4
:00000001FF
