:100000000C9431000C944E000C944E000C944E0055
:100010000C944E000C944E000C944E000C94BC00BA
:100020000C944E000C944E000C9495000C944E00D1
:100030000C944E000C945A050C944E000C944E00F7
:100040000C944E000C944E000C944E000C944E00F8
:100050000C944E005B019201C901000237026E024E
:10006000A50211241FBECFE5D8E0DEBFCDBF10E052
:10007000A0E6B0E0EAE5FDE002C005900D92A23FE7
:10008000B107D9F721E0A2EFB0E001C01D92AB317A
:10009000B207E1F70E94B1050C94AB060C94000086
:1000A0001ABA80E487B987E886B9089597B187704E
:1000B000987F892B87B9369A3699FECF84B195B14E
:1000C00008958130910519F00297A1F0089580E01C
:1000D0000E9456009C01A4E6B0E00E9488062FEF23
:1000E00033E040E050E00E94600630930601209328
:1000F0000501089581E00E9456009C01A4E6B0E04D
:100100000E9488062FEF33E040E050E00E94600636
:10011000309308012093070108958DE083BF12BE3C
:100120008CE98CBF82E089BF08951F920F920FB6B1
:100130000F9211248F939F9388B7826088BF80911C
:10014000F2009091F30001969093F3008093F200F7
:100150009F918F910F900FBE0F901F9018958EB5A5
:100160008B608EBD1DBC1CBC8FE493EC9BBD8ABD17
:1001700089B7806189BF08951F920F920FB60F92C1
:1001800011242F933F934F935F936F937F938F939C
:100190009F93AF93BF93EF93FF930E94300598B363
:1001A00081E0892788BB8091F4009091F500019649
:1001B0008330910528F49093F5008093F4000CC0EF
:1001C0001092F5001092F40081E090E00E9461002E
:1001D00082E090E00E946100809160009091610057
:1001E00001968330910528F490936100809360001C
:1001F00015C010926100109260000E942506609167
:10020000040181E00E9469056091050182E00E947D
:1002100069056091070183E00E946905FF91EF91F4
:10022000BF91AF919F918F917F916F915F914F910E
:100230003F912F910F900FBE0F901F90189525B3EF
:10024000382F307F2F70232B25BB25B361702E7F75
:10025000262B25BBA99AEFE1FEE43197F1F700C008
:10026000000025B32C7F25BB25B382959295907F06
:100270009827807F9827922F9F70892B85BB85B305
:100280008E7F682B65BBA99A8FE19EE40197F1F7F9
:1002900000C0000085B38C7F85BB0895E091040108
:1002A0008E2F90E08730910508F086C1FC01E65D55
:1002B000FF4F0C94820660E070E080E590E00E94C1
:1002C0001F0161E070E080E090E00E941F0161E0AA
:1002D00070E080E090E00E941F0161E070E080E04B
:1002E00090E00E941F0161E070E080E090E00E94D9
:1002F0001F0161E070E080E090E00E941F0161E07A
:1003000070E080E090E00E941F0161E070E080E01A
:1003100090E00E941F0161E070E08FE190E00E9498
:100320001F01089560E070E080E590E00E941F01E9
:1003300061E070E080E090E00E941F0161E070E009
:1003400080E090E00E941F0161E070E080E090E0BA
:100350000E941F0161E070E080E090E00E941F01B8
:1003600061E070E080E090E00E941F0161E070E0D9
:100370008FE190E00E941F0161E070E080E090E07A
:100380000E941F0161E070E08FE190E00E941F0178
:10039000089560E070E080E590E00E941F0161E058
:1003A00070E080E090E00E941F0161E070E080E07A
:1003B00090E00E941F0161E070E080E090E00E9408
:1003C0001F0161E070E080E090E00E941F0161E0A9
:1003D00070E08FE190E00E941F0161E070E08FE12A
:1003E00090E00E941F0161E070E080E090E00E94D8
:1003F0001F0161E070E08FE190E00E941F0108950D
:1004000060E070E080E590E00E941F0161E070E034
:1004100080E090E00E941F0161E070E080E090E0E9
:100420000E941F0161E070E080E090E00E941F01E7
:1004300061E070E08FE190E00E941F0161E070E0F8
:100440008FE190E00E941F0161E070E08FE190E099
:100450000E941F0161E070E080E090E00E941F01B7
:1004600061E070E08FE190E00E941F01089560E07C
:1004700070E080E590E00E941F0161E070E080E0A4
:1004800090E00E941F0161E070E080E090E00E9437
:100490001F0161E070E08FE190E00E941F0161E0C8
:1004A00070E08FE190E00E941F0161E070E08FE159
:1004B00090E00E941F0161E070E08FE190E00E94F7
:1004C0001F0161E070E080E090E00E941F0161E0A8
:1004D00070E08FE190E00E941F01089560E070E0FD
:1004E00080E590E00E941F0161E070E080E090E014
:1004F0000E941F0161E070E08FE190E00E941F0107
:1005000061E070E08FE190E00E941F0161E070E027
:100510008FE190E00E941F0161E070E08FE190E0C8
:100520000E941F0161E070E08FE190E00E941F01D6
:1005300061E070E080E090E00E941F0161E070E007
:100540008FE190E00E941F01089560E070E080E577
:1005500090E00E941F0161E070E08FE190E00E9456
:100560001F0161E070E08FE190E00E941F0161E0F7
:1005700070E08FE190E00E941F0161E070E08FE188
:1005800090E00E941F0161E070E08FE190E00E9426
:100590001F0161E070E08FE190E00E941F0161E0C7
:1005A00070E080E090E00E941F0161E070E08FE168
:1005B00090E00E941F01089560E070E080E590E007
:1005C0000E941F0161E070E080E090E00E941F0146
:1005D00061E070E080E090E00E941F0161E070E067
:1005E00080E090E00E941F0161E070E080E090E018
:1005F0000E941F0161E070E080E090E00E941F0116
:1006000061E070E080E090E00E941F0161E070E036
:1006100080E090E00E941F0161E070E08FE190E0D7
:100620000E941F01089560E070E080E490E00E9465
:100630001F0161E070E081E090E00E941F0161E035
:1006400070E081E090E00E941F0161E070E081E0D5
:1006500090E00E941F0161E070E081E090E00E9464
:100660001F0161E070E083E090E00E941F0161E003
:1006700070E087E090E00E941F0161E070E08DE093
:1006800090E00E941F0161E070E089E190E00E942B
:100690001F0160E070E088E490E00E941F0161E0CB
:1006A00070E080E190E00E941F0161E070E080E175
:1006B00090E00E941F0161E070E080E190E00E9404
:1006C0001F0161E070E080E190E00E941F0161E0A5
:1006D00070E088E190E00E941F0161E070E08CE131
:1006E00090E00E941F0161E070E086E190E00E94CE
:1006F0001F0161E070E083E190E00E941F01089516
:100700008FEF84BB60E070E083E090E00E941F0107
:100710008FE19EE40197F1F700C0000060E070E017
:1007200083E090E00E941F018FE19EE40197F1F7C2
:1007300000C0000060E070E083E090E00E941F01D4
:100740008FE19EE40197F1F700C0000060E070E0E7
:1007500082E090E00E941F018FE19EE40197F1F793
:1007600000C0000060E070E08CE090E00E941F019B
:100770008FE19EE40197F1F700C0000060E070E0B7
:1007800081E090E00E941F018FE19EE40197F1F764
:1007900000C0000060E070E080E890E00E941F016F
:1007A0008FE19EE40197F1F700C0000060E070E087
:1007B00081E090E00E941F010E9413030895EF92D0
:1007C000FF920F931F93CF93DF938C017C01C0E0C6
:1007D000D0E009C0F70181917F0161E070E090E015
:1007E0000E941F012196F80101900020E9F731973E
:1007F000E01BF10BCE17DF0768F3DF91CF911F915C
:100800000F91FF90EF900895CF93DF9360E070E039
:1008100081E090E00E941F0160E070E080E890E0DD
:100820000E941F0182E690E00E94DF03C5E0D0E055
:1008300061E070E080E290E00E941F012197C1F723
:1008400009C061E070E080E290E00E941F01219702
:10085000C1F70DC060E070E080EC90E00E941F01E5
:100860008DE690E00E94DF03C5E0D0E0EACFDF91A3
:10087000CF91089560E070E081E090E00E941F0158
:1008800060E070E080E890E00E941F0188E790E05F
:100890000E94DF03089560E070E080EC90E00E9429
:1008A0001F018AE091E00E94DF03089560E070E09C
:1008B00081E090E00E941F0160E070E080E890E03D
:1008C0000E941F0189E890E00E94DF030895CF9302
:1008D000DF938091040190E00E944E0160E070E09F
:1008E00080EC90E00E941F0161E070E080E090E009
:1008F0000E941F01C8E0D0E061E070E082E090E07B
:100900000E941F012197C1F761E070E081E090E053
:100910000E941F01DF91CF910895CF93DF939C0137
:1009200064E670E00E944C06CB01CAE0D0E0BE0154
:100930000E944C06FC01C901BE010E944C06382FE2
:10094000CB01BE010E944C06282F309769F4892BF9
:1009500029F490E3930F30E020E00AC090E3920F77
:1009600020E3230F30E004C090E39E0F205D305D54
:10097000E6EFF0E09083218332831382CF01DF9191
:10098000CF91089560E070E08AE890E00E941F0136
:1009900080910501909106010E948D040E94DF0361
:1009A0008AE990E00E94DF038CE990E00E94DF0377
:1009B00060E070E08AEC90E00E941F0180910701E6
:1009C000909108010E948D040E94DF038AE990E063
:1009D0000E94DF038CE990E00E94DF03089560E04D
:1009E00070E081E090E00E941F0160E070E080E82C
:1009F00090E00E941F018FE990E00E94DF0360E019
:100A000070E080EC90E00E941F0184EA90E00E9478
:100A1000DF03089560E070E081E090E00E941F0134
:100A200060E070E080E890E00E941F0189EA90E0B9
:100A30000E94DF03089560E070E084E890E00E9487
:100A40001F0189EB90E00E94DF0360E070E084EC1E
:100A500090E00E941F0186EC90E00E94DF03089561
:100A600080910901813049F058F0823019F08330CB
:100A700051F00CC00E941B0508950E94C204089505
:100A80000E944B0408950E946704089560E070E09E
:100A900080E890E00E941F0180ED90E00E94DF035B
:100AA000089588E18AB986E880BD10BC87E689B9D7
:100AB000579A08951F920F920FB60F9211248F9399
:100AC0008CB180931A018F910F900FBE0F901F90E1
:100AD00018951CB8EFEDFEE23197F1F700C0000069
:100AE0001CB8EFEDFEE23197F1F700C000008CB9C1
:100AF0008FED9EE20197F1F700C000006CB9EFEDB9
:100B0000FEE23197F1F700C000000895B89A089509
:100B1000EAEFF0E0108281E0818382E0828383E06B
:100B200083838FEF84838583868387838087818710
:100B30008AE0E6EDF0E0AAE0B1E001900D928A953E
:100B4000E1F710920601109205011092080110922F
:100B500007011092040108950E9486050E948805ED
:100B600008950E94AC050E9451050E948D000E94CC
:100B7000AF000E9450000E9480030E941E060E9447
:100B80000A052FEF83ED90E3215080409040E1F77C
:100B900000C0000083E00E94EF057894FFCF813011
:100BA00049F028F0823049F0833051F00CC00E94A7
:100BB0003A0408950E94040408950E94EF040895E1
:100BC0000E945604089581E1E0EEF0E0AAE0B1E071
:100BD00001900D928A95E1F70E943A040895909150
:100BE0000901891751F19091FA00981739F0EBEF4C
:100BF000F0E024E031E09191981305C08093090161
:100C00000E94CF0504C0E217F307A9F707C08FE5DC
:100C10009AEE0197F1F700C0000008958AE0E6ED32
:100C2000F0E0AAE0B1E001900D928A95E1F7109210
:100C3000090180E00E94CF05EACF089587B3837051
:100C400087BB88B38C6F88BB0895B29904C086E0D7
:100C5000809304010895B39904C085E08093040152
:100C60000895B49904C084E0809304010895B5996F
:100C700004C083E0809304010895B69904C082E023
:100C8000809304010895B79904C081E08093040122
:100C9000089510920401089597FB072E16F400940E
:100CA00007D077FD09D00E94970607FC05D03EF4D7
:100CB000909581959F4F0895709561957F4F089508
:100CC000A1E21A2EAA1BBB1BFD010DC0AA1FBB1F50
:100CD000EE1FFF1FA217B307E407F50720F0A21BC2
:100CE000B30BE40BF50B661F771F881F991F1A942F
:100CF00069F760957095809590959B01AC01BD0159
:100D0000CF010895EE0FFF1F0590F491E02D099497
:100D1000A29FB001B39FC001A39F700D811D11243C
:100D2000911DB29F700D811D1124911D0895AA1B64
:100D3000BB1B51E107C0AA1FBB1FA617B70710F0C6
:100D4000A61BB70B881F991F5A95A9F780959095F8
:0A0D5000BC01CD010895F894FFCF17
:100D5A00C90053656E736F7220313A200053656E75
:100D6A00736F7220323A20004552524F5253204F2D
:100D7A00434355525245443A0054414E4B20574141
:100D8A00544552204C4556454C002500202000442D
:100D9A006174650054696D6500496E697469616CB6
:100DAA00697A696E672E2E2E00203031204150520A
:100DBA002032303137002032333A34323A3531007A
:100DCA006572726F72004E6F206572726F72730075
:100DDA0057726F6E67206D656E75207469746C65E5
:020DEA00000007
:00000001FF
