S0160000536D617274466C6F776572706F742E7372656345
S11300000C942A000C9447000C9447000C9447006D
S11300100C9447000C9447000C9447000C94B500D2
S11300200C9447000C9447000C948E000C944700E9
S11300300C9447000C9447000C9447000C94470020
S11300400C9447000C9447000C9447000C94470010
S11300500C94470011241FBECFE5D8E0DEBFCDBF0E
S113006010E0A0E6B0E0EAEBF5E002C005900D92E6
S1130070AC3AB107D9F720E0ACEAB0E001C01D9278
S1130080A93BB207E1F70E9468020C94DB020C94CE
S113009000001ABA80E487B987E886B9089597B151
S11300A08770987F892B87B9369A3699FECF84B1A9
S11300B095B108958130910519F00297A1F0089542
S11300C080E00E944F009C01A4E6B0E00E94B802C8
S11300D02FEF33E040E050E00E9496023093B500E9
S11300E02093B400089581E00E944F009C01A4E68F
S11300F0B0E00E94B8022FEF33E040E050E00E94ED
S113010096023093B7002093B60008958DE083BF24
S113011012BE8CE98CBF82E089BF08951F920F92B2
S11301200FB60F9211248F939F9388B7826088BF74
S11301308091AC009091AD0001969093AD008093B6
S1130140AC009F918F910F900FBE0F901F90189548
S11301508EB58B608EBD1DBC1CBC8FE493EC9BBD27
S11301608ABD89B7806189BF08951F920F920FB627
S11301700F9211242F933F934F935F936F937F9329
S11301808F939F93AF93BF93EF93FF9398B381E0C3
S1130190892788BB6091B6007091B7008091B40044
S11301A09091B5000E941A028091AE009091AF0028
S11301B001968530910528F49093AF008093AE00AA
S11301C00CC01092AF001092AE0081E090E00E944B
S11301D05A0082E090E00E945A00FF91EF91BF9193
S11301E0AF919F918F917F916F915F914F913F91CB
S11301F02F910F900FBE0F901F90189525B3382F95
S1130200307F2F70232B25BB25B361702E7F262BC7
S113021025BBA99AEFE1FEE43197F1F700C0000095
S113022025B32C7F25BB25B382959295907F982783
S1130230807F9827922F9F70892B85BB85B38E7FF3
S1130240682B65BBA99A8FE19EE40197F1F700C082
S1130250000085B38C7F85BB08958FEF84BB60E07D
S113026070E083E090E00E94FE008FE19EE401973D
S1130270F1F700C0000060E070E083E090E00E94CD
S1130280FE008FE19EE40197F1F700C0000060E0FA
S113029070E083E090E00E94FE008FE19EE401970D
S11302A0F1F700C0000060E070E082E090E00E949E
S11302B0FE008FE19EE40197F1F700C0000060E0CA
S11302C070E08CE090E00E94FE008FE19EE40197D4
S11302D0F1F700C0000060E070E081E090E00E946F
S11302E0FE008FE19EE40197F1F700C0000060E09A
S11302F070E080E890E00E94FE008FE19EE40197A8
S1130300F1F700C0000060E070E081E090E00E943E
S1130310FE000895EF92FF920F931F93CF93DF9304
S11303208C017C01C0E0D0E009C0F70181917F011C
S113033061E070E090E00E94FE002196F8010190D7
S11303400020E9F73197E01BF10BCE17DF0768F3C4
S1130350DF91CF911F910F91FF90EF900895CF936C
S1130360DF9360E070E081E090E00E94FE0060E0D6
S113037070E080E890E00E94FE0080E690E00E9439
S11303808A01C5E0D0E061E070E080E290E00E9484
S1130390FE002197C1F709C061E070E080E290E0BF
S11303A00E94FE002197C1F70DC060E070E080EC70
S11303B090E00E94FE008BE690E00E948A01C5E076
S11303C0D0E0EACFDF91CF910895CF93DF939C01E2
S11303D064E670E00E948202CB01CAE0D0E0BE0174
S11303E00E948202FC01C901BE010E948202382FD0
S11303F0CB01BE010E948202282F309769F4892B19
S113040029F490E3930F30E020E00AC090E3920FC8
S113041020E3230F30E004C090E39E0F205D305DA5
S1130420E0EBF0E09083218332831382CF01DF91EC
S1130430CF9108950F931F93CF93DF938C01EB011A
S113044060E070E08AE890E00E94FE00C8010E942B
S1130450E5010E948A0186E790E00E948A0188E70C
S113046090E00E948A0160E070E08AEC90E00E94D3
S1130470FE00CE010E94E5010E948A0186E790E019
S11304800E948A0188E790E00E948A01DF91CF915F
S11304901F910F91089560E070E081E090E00E9468
S11304A0FE0060E070E080E890E00E94FE0085E8D5
S11304B090E00E948A01089581E08093B800109230
S11304C0B5001092B4001092B7001092B6000895CF
S11304D00E945C02B89A0E9486000E94A8000E94B2
S11304E049000E942D010E944B022FEF83ED90E3FF
S11304F0215080409040E1F700C000000E94AF010D
S11305007894FFCF97FB072E16F4009407D077FD5D
S113051009D00E94C70207FC05D03EF4909581954E
S11305209F4F0895709561957F4F0895A1E21A2E0B
S1130530AA1BBB1BFD010DC0AA1FBB1FEE1FFF1F83
S1130540A217B307E407F50720F0A21BB30BE40BD3
S1130550F50B661F771F881F991F1A9469F760951A
S11305607095809590959B01AC01BD01CF010895D4
S1130570A29FB001B39FC001A39F700D811D1124E0
S1130580911DB29F700D811D1124911D0895AA1B08
S1130590BB1B51E107C0AA1FBB1FA617B70710F06A
S11305A0A61BB70B881F991F5A95A9F7809590959C
S10D05B0BC01CD010895F894FFCFBB
S11305BA53656E736F7220313A200053656E736F00
S11305CA7220323A2000250020200044617465001C
S11305DA54696D6500496E697469616C697A696EFA
S11305EA672E2E2E002030312041505220323031D5
S10F05FA37002032333A34323A353100F5
S9030000FC
