S0160000536D617274466C6F776572706F742E7372656345
S11300000C942A000C9447000C9447000C9447006D
S11300100C9447000C9447000C9447000C94470040
S11300200C9447000C9447000C9465000C94470012
S11300300C9447000C9447000C9447000C94470020
S11300400C9447000C9447000C9447000C94470010
S11300500C94470011241FBECFE5D8E0DEBFCDBF0E
S113006010E0A0E6B0E0EAE5F4E002C005900D92ED
S1130070A837B107D9F720E0A8E7B0E001C01D9286
S1130080A438B207E1F70E94E1010C942B020C940E
S113009000001ABA80E487B987E886B9089597B151
S11300A08770987F892B87B9369A3699FECF84B1A9
S11300B095B108958BE083BF12BE8DE78CBF89B7DD
S11300C0826089BF82E088BF08951F920F920FB6A5
S11300D00F9211242F933F934F935F936F937F93CA
S11300E08F939F93AF93BF93EF93FF9380917A0085
S11300F090917B000196883E23E0920728F4909328
S11301007B0080937A000EC010927B0010927A00DC
S113011060918200709183008091800090918100B1
S11301200E94B80180917800909179000196909393
S1130130790080937800883E934070F080E00E94BC
S11301404F00909381008093800081E00E944F00D3
S11301509093830080938200FF91EF91BF91AF91C0
S11301609F918F917F916F915F914F913F912F91CB
S11301700F900FBE0F901F90189525B3382F307F26
S11301802F70232B25BB25B361702E7F262B25BB17
S1130190A99AEFE1FEE43197F1F700C0000025B31E
S11301A02C7F25BB25B382959295907F9827807FDD
S11301B09827922F9F70892B85BB85B38E7F682BE0
S11301C065BBA99A8FE19EE40197F1F700C0000096
S11301D085B38C7F85BB08958FEF84BB60E070E0AE
S11301E083E090E00E94BD008FE19EE40197F1F767
S11301F000C0000060E070E083E090E00E94BD0079
S11302008FE19EE40197F1F700C0000060E070E028
S113021083E090E00E94BD008FE19EE40197F1F736
S113022000C0000060E070E082E090E00E94BD0049
S11302308FE19EE40197F1F700C0000060E070E0F8
S11302408CE090E00E94BD008FE19EE40197F1F7FD
S113025000C0000060E070E081E090E00E94BD001A
S11302608FE19EE40197F1F700C0000060E070E0C8
S113027080E890E00E94BD008FE19EE40197F1F7D1
S113028000C0000060E070E081E090E00E94BD00EA
S11302900895EF92FF920F931F93CF93DF938C01F6
S11302A07C01C0E0D0E009C0F70181917F0161E0E9
S11302B070E090E00E94BD002196F80101900020BA
S11302C0E9F73197E01BF10BCE17DF0768F3DF91F5
S11302D0CF911F910F91FF90EF90089560E070E02F
S11302E080E890E00E94BD0080E690E00E94490111
S11302F060E070E080EC90E00E94BD008BE690E04E
S11303000E9449010895CF93DF939C0164E670E055
S11303100E940302CB01CAE0D0E0BE010E940302A6
S1130320FC01C901BE010E940302382FCB01BE01AA
S11303300E940302282F309769F4892B29F490E353
S1130340930F30E020E00AC090E3920F20E3230FE4
S113035030E004C090E39E0F205D305DECE7F0E0F8
S11303609083218332831382CF01DF91CF9108954B
S11303700F931F93CF93DF938C01EB0160E070E048
S11303808AE890E00E94BD00C8010E9483010E9497
S1130390490186E790E00E94490160E070E08AEC40
S11303A090E00E94BD00CE010E9483010E94490199
S11303B086E790E00E944901DF91CF911F910F9150
S11303C00895109281001092800010928300109280
S11303D0820078940E945A000E9449000E94EC0016
S11303E060E070E080EC90E00E94BD000E946E012D
S11303F060918200709183008091800090918100CF
S11304000E94B801FFCF97FB072E16F4009407D083
S113041077FD09D00E94170207FC05D03EF49095A1
S113042081959F4F0895709561957F4F0895AA1BFC
S1130430BB1B51E107C0AA1FBB1FA617B70710F0CB
S1130440A61BB70B881F991F5A95A9F780959095FD
S10D0450BC01CD010895F894FFCF1C
S113045A53656E736F7220313A200053656E736F61
S10B046A7220323A2000250043
S9030000FC
