:100000000C942A000C9434000C9434000C943400AA
:100010000C9434000C9434000C9434000C94340090
:100020000C9434000C9434000C9434000C94340080
:100030000C9434000C9434000C9434000C94340070
:100040000C9434000C9434000C9434000C94340060
:100050000C94340011241FBECFE5D8E0DEBFCDBF25
:100060000E94C2000C94F5000C94000025B3382FB8
:10007000307F2F70232B25BB25B361702E7F262B5D
:1000800025BBA99AEFE1FEE43197F1F700C000002B
:1000900025B32C7F25BB25B382959295907F982719
:1000A000807F9827922F9F70892B85BB85B38E7F89
:1000B000682B65BBA99A8FE19EE40197F1F700C018
:1000C000000085B38C7F85BB08958FEF84BB60E013
:1000D00070E083E090E00E9436008FE19EE401979B
:1000E000F1F700C0000060E070E083E090E00E9463
:1000F00036008FE19EE40197F1F700C0000060E058
:1001000070E083E090E00E9436008FE19EE401976A
:10011000F1F700C0000060E070E082E090E00E9433
:1001200036008FE19EE40197F1F700C0000060E027
:1001300070E08CE090E00E9436008FE19EE4019731
:10014000F1F700C0000060E070E081E090E00E9404
:1001500036008FE19EE40197F1F700C0000060E0F7
:1001600070E080E890E00E9436008FE19EE4019705
:10017000F1F700C0000060E070E081E090E00E94D4
:10018000360008950E94650060E070E080EC90E029
:100190000E94360061E070E080E590E00E94360049
:1001A00061E070E081E690E00E94360061E070E07E
:1001B00085E790E00E94360061E070E08CE690E018
:1001C0000E94360061E070E089E690E00E9436000F
:1001D00061E070E083E690E00E94360061E070E04C
:0E01E00089E690E00E943600FFCFF894FFCF32
:00000001FF
