S0160000536D617274466C6F776572706F742E7372656345
S11300000C9431000C944E000C944E000C944E0051
S11300100C944E000C944E000C944E000C94F20080
S11300200C944E000C944E000C944E000C944E0014
S11300300C944E000C9419060C944E000C944E0033
S11300400C944E000C944E000C944E000C944E00F4
S11300500C944E00A601DD0114024B028202B90287
S1130060F00211241FBECFE5D8E0DEBFCDBF11E002
S1130070A0E6B0E0E4E2FFE002C005900D92AE30ED
S1130080B107D9F721E0AEE0B1E001C01D92AE3373
S1130090B207E1F70E9471060C9490070C940000DB
S11300A01ABA80E487B987E886B9089597B187704A
S11300B0987F892B87B9369A3699FECF84B195B14A
S11300C008958130910519F00297A1F0089580E018
S11300D00E9456009C01A4E6B0E00E946D072FEF39
S11300E033E040E050E00E9445073093290120931B
S11300F02801089581E00E9456009C01A4E6B0E026
S11301000E946D072FEF33E040E050E00E94450766
S113011030932B0120932A01089581B38F7381BBFF
S113012082B38F7382BB809121018E7F8D7F8093F8
S11301302101089590B39295969596959370809128
S1130140210190FB80F98093210180FF03C00E946C
S1130150E606089580B3881F8827881F909121019F
S113016080FB91F99093210108958091260190914B
S1130170270101968C3391052CF4909327018093E9
S113018026010895E2E2F1E01582148282819381CE
S113019001968C3391052CF49093250180932401CE
S11301A00895E2E2F1E01382128280819181019646
S11301B0883191052CF490932301809322010895B2
S11301C0109223011092220108958EB58B608EBD8A
S11301D01DBC1CBC8FE493EC9BBD8ABD89B78061B8
S11301E089BF08951F920F920FB60F9211242F9377
S11301F03F934F935F936F937F938F939F93AF93AB
S1130200BF93EF93FF930E94DF0580910E019091BD
S11302100F0101968530910528F490930F01809386
S11302200E0106C010920F0110920E010E94B5003B
S113023098B381E0892788BB8091100190911101C6
S113024001968330910528F4909311018093100155
S11302500CC0109211011092100181E090E00E94F4
S1130260610082E090E00E946100809160009091C2
S1130270610001968330910528F490936100809386
S1130280600017C010926100109260000E949A00F2
S11302900E940A076091200181E00E942806609173
S11302A0280182E00E94280660912A0183E00E94CE
S11302B02806FF91EF91BF91AF919F918F917F910C
S11302C06F915F914F913F912F910F900FBE0F90BF
S11302D01F90189525B3382F307F2F70232B25BB03
S11302E025B361702E7F262B25BBA99AEFE1FEE48E
S11302F03197F1F700C0000025B32C7F25BB25B34F
S113030082959295907F9827807F9827922F9F704F
S1130310892B85BB85B38E7F682B65BBA99A8FE13A
S11303209EE40197F1F700C0000085B38C7F85BB84
S11303300895E09120018E2F90E08730910508F018
S113034086C1FC01E65DFF4F0C94670760E070E036
S113035080E590E00E946A0161E070E080E090E056
S11303600E946A0161E070E080E090E00E946A010E
S113037061E070E080E090E00E946A0161E070E07A
S113038080E090E00E946A0161E070E080E090E02B
S11303900E946A0161E070E080E090E00E946A01DE
S11303A061E070E080E090E00E946A0161E070E04A
S11303B08FE190E00E946A01089560E070E080E5BA
S11303C090E00E946A0161E070E080E090E00E94A9
S11303D06A0161E070E080E090E00E946A0161E0FF
S11303E070E080E090E00E946A0161E070E080E0EB
S11303F090E00E946A0161E070E080E090E00E9479
S11304006A0161E070E08FE190E00E946A0161E0BE
S113041070E080E090E00E946A0161E070E08FE1AA
S113042090E00E946A01089560E070E080E590E049
S11304300E946A0161E070E080E090E00E946A013D
S113044061E070E080E090E00E946A0161E070E0A9
S113045080E090E00E946A0161E070E080E090E05A
S11304600E946A0161E070E08FE190E00E946A01FD
S113047061E070E08FE190E00E946A0161E070E069
S113048080E090E00E946A0161E070E08FE190E01A
S11304900E946A01089560E070E080E590E00E94A7
S11304A06A0161E070E080E090E00E946A0161E02E
S11304B070E080E090E00E946A0161E070E080E01A
S11304C090E00E946A0161E070E08FE190E00E9498
S11304D06A0161E070E08FE190E00E946A0161E0EE
S11304E070E08FE190E00E946A0161E070E080E0DA
S11304F090E00E946A0161E070E08FE190E00E9468
S11305006A01089560E070E080E590E00E946A016D
S113051061E070E080E090E00E946A0161E070E0D8
S113052080E090E00E946A0161E070E08FE190E079
S11305300E946A0161E070E08FE190E00E946A012C
S113054061E070E08FE190E00E946A0161E070E098
S11305508FE190E00E946A0161E070E080E090E049
S11305600E946A0161E070E08FE190E00E946A01FC
S1130570089560E070E080E590E00E946A0161E027
S113058070E080E090E00E946A0161E070E08FE139
S113059090E00E946A0161E070E08FE190E00E94C7
S11305A06A0161E070E08FE190E00E946A0161E01D
S11305B070E08FE190E00E946A0161E070E08FE1F9
S11305C090E00E946A0161E070E080E090E00E94A7
S11305D06A0161E070E08FE190E00E946A01089591
S11305E060E070E080E590E00E946A0161E070E004
S11305F08FE190E00E946A0161E070E08FE190E099
S11306000E946A0161E070E08FE190E00E946A015B
S113061061E070E08FE190E00E946A0161E070E0C7
S11306208FE190E00E946A0161E070E08FE190E068
S11306300E946A0161E070E080E090E00E946A013B
S113064061E070E08FE190E00E946A01089560E04B
S113065070E080E590E00E946A0161E070E080E073
S113066090E00E946A0161E070E080E090E00E9406
S11306706A0161E070E080E090E00E946A0161E05C
S113068070E080E090E00E946A0161E070E080E048
S113069090E00E946A0161E070E080E090E00E94D6
S11306A06A0161E070E080E090E00E946A0161E02C
S11306B070E08FE190E00E946A01089560E070E0CC
S11306C080E490E00E946A0161E070E081E090E0E3
S11306D00E946A0161E070E081E090E00E946A019A
S11306E061E070E081E090E00E946A0161E070E006
S11306F081E090E00E946A0161E070E083E090E0B4
S11307000E946A0161E070E087E090E00E946A0163
S113071061E070E08DE090E00E946A0161E070E0C9
S113072089E190E00E946A0160E070E088E490E072
S11307300E946A0161E070E080E190E00E946A0139
S113074061E070E080E190E00E946A0161E070E0A5
S113075080E190E00E946A0161E070E080E190E055
S11307600E946A0161E070E088E190E00E946A0101
S113077061E070E08CE190E00E946A0161E070E069
S113078086E190E00E946A0161E070E083E190E01C
S11307900E946A0108958FEF84BB60E070E083E0FB
S11307A090E00E946A018FE19EE40197F1F700C096
S11307B0000060E070E083E090E00E946A018FE155
S11307C09EE40197F1F700C0000060E070E083E070
S11307D090E00E946A018FE19EE40197F1F700C066
S11307E0000060E070E082E090E00E946A018FE126
S11307F09EE40197F1F700C0000060E070E08CE037
S113080090E00E946A018FE19EE40197F1F700C035
S1130810000060E070E081E090E00E946A018FE1F6
S11308209EE40197F1F700C0000060E070E080E80A
S113083090E00E946A018FE19EE40197F1F700C005
S1130840000060E070E081E090E00E946A010E9494
S11308505E030895EF92FF920F931F93CF93DF935C
S11308608C017C01C0E0D0E009C0F70181917F01D7
S113087061E070E090E00E946A012196F801019025
S11308800020E9F73197E01BF10BCE17DF0768F37F
S1130890DF91CF911F910F91FF90EF900895CF9327
S11308A0DF9360E070E081E090E00E946A0160E024
S11308B070E080E890E00E946A0182E690E00E9485
S11308C02A04C5E0D0E061E070E080E290E00E949C
S11308D06A012197C1F709C061E070E080E290E00D
S11308E00E946A012197C1F70DC060E070E080ECBE
S11308F090E00E946A018DE690E00E942A04C5E01F
S1130900D0E0EACFDF91CF91089560E070E081E01C
S113091090E00E946A0160E070E080E890E00E944C
S11309206A0188E790E00E942A04089560E070E07C
S113093081E090E00E946A0160E070E080E890E06D
S11309400E946A0189E890E00E942A04089560E008
S113095070E080EC90E00E946A018DE291E00E94D8
S11309602A04089560E070E081E090E00E946A014A
S113097060E070E080E890E00E946A0187E990E01E
S11309800E942A040895CF93DF938091200190E080
S11309900E94990160E070E080EC90E00E946A019E
S11309A061E070E080E090E00E946A01C8E0D0E07D
S11309B061E070E082E090E00E946A012197C1F753
S11309C061E070E081E090E00E946A01DF91CF91E4
S11309D00895CF93DF939C0164E670E00E94310791
S11309E0CB01CAE0D0E0BE010E943107FC01C9017D
S11309F0BE010E943107382FCB01BE010E9431078E
S1130A00282F309769F4892B29F490E3930F30E071
S1130A1020E00AC090E3920F20E3230F30E004C0EB
S1130A2090E39E0F205D305DE2E1F1E0908321834D
S1130A3032831382CF01DF91CF91089560E070E09B
S1130A408AE890E00E946A0180912801909129012E
S1130A500E94E9040E942A0488EA90E00E942A0481
S1130A608AEA90E00E942A0460E070E08AEC90E058
S1130A700E946A0180912A0190912B010E94E9044D
S1130A800E942A0488EA90E00E942A048AEA90E0FC
S1130A900E942A04089560E070E081E090E00E94E2
S1130AA06A0160E070E080E890E00E946A018DEAEB
S1130AB090E00E942A0460E070E080EC90E00E94E4
S1130AC06A0182EB90E00E942A04089560E070E0DD
S1130AD081E090E00E946A0160E070E080E890E0CC
S1130AE00E946A0187EB90E00E942A0408950F9304
S1130AF01F93CF93DF9360E070E084E890E00E945E
S1130B006A0187EC90E00E942A0460E070E085ECC2
S1130B1090E00E946A01C2E2D1E0888199810AE0F2
S1130B2010E0B8010E943107CB0161E070E0C0968B
S1130B300E946A0188819981B8010E94310761E0AD
S1130B4070E0C0960E946A0161E070E08AE390E080
S1130B500E946A018A819B81B8010E943107CB01FE
S1130B6061E070E0C0960E946A018A819B81B801AD
S1130B700E94310761E070E0C0960E946A0161E062
S1130B8070E08AE390E00E946A018C819D81B80143
S1130B900E943107CB0161E070E0C0960E946A01B7
S1130BA08C819D81B8010E94310761E070E0C0969C
S1130BB00E946A01DF91CF911F910F910895809156
S1130BC02C01823059F028F48823C9F08130A1F037
S1130BD01CC08330B9F0843021F017C00E9477051F
S1130BE0089560E070E080EC90E00E946A0184ED7A
S1130BF090E00E942A0408950E941E0508950E9410
S1130C00A70408950E94C304089560E070E080EC96
S1130C1090E00E946A018CED90E00E942A040895FD
S1130C2088E18AB986E880BD10BC87E689B9579AFD
S1130C3008951F920F920FB60F9211248F938CB1C7
S1130C4080933D018F910F900FBE0F901F901895C8
S1130C501CB8EFEDFEE23197F1F700C000001CB8BC
S1130C60EFEDFEE23197F1F700C000008CB98FED93
S1130C709EE20197F1F700C000006CB9EFEDFEE2CF
S1130C803197F1F700C000000895B89A0895E6E19D
S1130C90F1E0108281E0818382E0828383E08383B8
S1130CA084E084838FEF858386838783808781872D
S1130CB08AE0E8EEF0E0ADE2B1E001900D928A95B1
S1130CC0E1F7109229011092280110922B01109241
S1130CD02A011092200108950E9445060E944706A9
S1130CE008950E946C060E9410060E94E5000E946E
S1130CF050000E94CB030E9403070E948D000E94B3
S1130D0066052FEF83ED90E3215080409040E1F79A
S1130D1000C0000083E00E94B7067894FFCF8230C1
S1130D20A1F028F4882341F0813061F014C08330AD
S1130D3079F0843021F00FC00E94850408950E9448
S1130D40960408950E944F0408950E944B05089547
S1130D500E94B204089581E1E2EFF0E0ADE2B1E077
S1130D6001900D928A95E1F70E948504089590916F
S1130D702C01891751F190911601981739F0E7E188
S1130D80F1E020E231E09191981305C080932C01A9
S1130D900E948F0604C0E217F307A9F707C08FE586
S1130DA09AEE0197F1F700C0000008958BE0E3E0AC
S1130DB0F1E0ADE2B1E001900D928A95E1F7109275
S1130DC02C0180E00E948F06EACF089580912C01C7
S1130DD0823069F018F4813031F00895833059F08D
S1130DE0843069F0089582E00E94B706089583E094
S1130DF00E94B706089584E00E94B706089581E032
S1130E000E94B706089587B3837087BB88B38C6F3D
S1130E1088BB0895B29904C086E0809320010895A8
S1130E20B39904C085E0809320010895B49904C067
S1130E3084E0809320010895B59904C083E08093F1
S1130E4020010895B69904C082E08093200108959A
S1130E50B79904C081E08093200108951092200185
S1130E60089597FB072E16F4009407D077FD09D058
S1130E700E947C0707FC05D03EF4909581959F4F16
S1130E800895709561957F4F0895A1E21A2EAA1BCB
S1130E90BB1BFD010DC0AA1FBB1FEE1FFF1FA21726
S1130EA0B307E407F50720F0A21BB30BE40BF50B23
S1130EB0661F771F881F991F1A9469F760957095AC
S1130EC0809590959B01AC01BD01CF010895EE0F73
S1130ED0FF1F0590F491E02D0994A29FB001B39FE8
S1130EE0C001A39F700D811D1124911DB29F700D2F
S1130EF0811D1124911D0895AA1BBB1B51E107C03C
S1130F00AA1FBB1FA617B70710F0A61BB70B881F95
S1130F10991F5A95A9F780959095BC01CD01089524
S1070F20F894FFCF6F
S1130F24C90053656E736F7220313A200053656EA5
S1130F34736F7220323A20004552524F5253204F5D
S1130F44434355525245443A00424154544552593C
S1130F54204C4556454C0054414E4B205741544572
S1130F6452204C4556454C00250020200044617411
S1130F74650054696D6500496E697469616C697AC8
S1130F84696E672E2E2E00203330204150522032B9
S1130F94303137006261747465727900666174611A
S1130FA46C206572726F72004E6F206572726F727C
S1130FB4730057726F6E67206D656E752074697463
S1110FC46C650057726F6E67206D656E750068
S9030000FC
